{
	"contracts/MyContact.sol": {
		"MyContract": {
			"abi": [
				{
					"inputs": [
						{
							"internalType": "string",
							"name": "_secret",
							"type": "string"
						}
					],
					"stateMutability": "nonpayable",
					"type": "constructor"
				},
				{
					"inputs": [],
					"name": "getSecret",
					"outputs": [
						{
							"internalType": "string",
							"name": "",
							"type": "string"
						}
					],
					"stateMutability": "view",
					"type": "function"
				},
				{
					"inputs": [],
					"name": "owner",
					"outputs": [
						{
							"internalType": "address",
							"name": "",
							"type": "address"
						}
					],
					"stateMutability": "view",
					"type": "function"
				}
			],
			"devdoc": {
				"kind": "dev",
				"methods": {},
				"version": 1
			},
			"evm": {
				"assembly": "    /* \"contracts/MyContact.sol\":481:896  contract MyContract is Ownable{... */\n  mstore(0x40, 0x80)\n    /* \"contracts/MyContact.sol\":543:713  constructor(string memory _secret) public {... */\n  callvalue\n  dup1\n  iszero\n  tag_1\n  jumpi\n  0x00\n  dup1\n  revert\ntag_1:\n  pop\n  mload(0x40)\n  sub(codesize, bytecodeSize)\n  dup1\n  bytecodeSize\n  dup4\n  codecopy\n  dup2\n  dup2\n  add\n  0x40\n  mstore\n  dup2\n  add\n  swap1\n  tag_2\n  swap2\n  swap1\n  tag_3\n  jump\t// in\ntag_2:\n    /* \"contracts/MyContact.sol\":145:155  msg.sender */\n  caller\n    /* \"contracts/MyContact.sol\":137:142  owner */\n  0x00\n  dup1\n    /* \"contracts/MyContact.sol\":137:155  owner = msg.sender */\n  0x0100\n  exp\n  dup2\n  sload\n  dup2\n  0xffffffffffffffffffffffffffffffffffffffff\n  mul\n  not\n  and\n  swap1\n  dup4\n  0xffffffffffffffffffffffffffffffffffffffff\n  and\n  mul\n  or\n  swap1\n  sstore\n  pop\n    /* \"contracts/MyContact.sol\":595:619  SecretValut _secretValut */\n  0x00\n    /* \"contracts/MyContact.sol\":638:645  _secret */\n  dup2\n    /* \"contracts/MyContact.sol\":622:646  new SecretValut(_secret) */\n  mload(0x40)\n  tag_8\n  swap1\n  tag_9\n  jump\t// in\ntag_8:\n  tag_10\n  swap2\n  swap1\n  tag_11\n  jump\t// in\ntag_10:\n  mload(0x40)\n  dup1\n  swap2\n  sub\n  swap1\n  0x00\n  create\n  dup1\n  iszero\n  dup1\n  iszero\n  tag_12\n  jumpi\n  returndatasize\n  0x00\n  dup1\n  returndatacopy\n  revert(0x00, returndatasize)\ntag_12:\n  pop\n    /* \"contracts/MyContact.sol\":595:646  SecretValut _secretValut = new SecretValut(_secret) */\n  swap1\n  pop\n    /* \"contracts/MyContact.sol\":678:690  _secretValut */\n  dup1\n    /* \"contracts/MyContact.sol\":656:667  secretValut */\n  0x01\n  0x00\n    /* \"contracts/MyContact.sol\":656:691  secretValut = address(_secretValut) */\n  0x0100\n  exp\n  dup2\n  sload\n  dup2\n  0xffffffffffffffffffffffffffffffffffffffff\n  mul\n  not\n  and\n  swap1\n  dup4\n  0xffffffffffffffffffffffffffffffffffffffff\n  and\n  mul\n  or\n  swap1\n  sstore\n  pop\n    /* \"contracts/MyContact.sol\":543:713  constructor(string memory _secret) public {... */\n  pop\n  pop\n    /* \"contracts/MyContact.sol\":481:896  contract MyContract is Ownable{... */\n  jump(tag_13)\ntag_9:\n  dataSize(sub_1)\n  dup1\n  dataOffset(sub_1)\n  dup4\n  codecopy\n  add\n  swap1\n  jump\t// out\n    /* \"#utility.yul\":7:360   */\ntag_15:\n  0x00\n    /* \"#utility.yul\":121:186   */\n  tag_17\n    /* \"#utility.yul\":136:185   */\n  tag_18\n    /* \"#utility.yul\":178:184   */\n  dup5\n    /* \"#utility.yul\":136:185   */\n  tag_19\n  jump\t// in\ntag_18:\n    /* \"#utility.yul\":121:186   */\n  tag_20\n  jump\t// in\ntag_17:\n    /* \"#utility.yul\":112:186   */\n  swap1\n  pop\n    /* \"#utility.yul\":209:215   */\n  dup3\n    /* \"#utility.yul\":202:207   */\n  dup2\n    /* \"#utility.yul\":195:216   */\n  mstore\n    /* \"#utility.yul\":247:251   */\n  0x20\n    /* \"#utility.yul\":240:245   */\n  dup2\n    /* \"#utility.yul\":236:252   */\n  add\n    /* \"#utility.yul\":285:288   */\n  dup5\n    /* \"#utility.yul\":276:282   */\n  dup5\n    /* \"#utility.yul\":271:274   */\n  dup5\n    /* \"#utility.yul\":267:283   */\n  add\n    /* \"#utility.yul\":264:289   */\n  gt\n    /* \"#utility.yul\":261:263   */\n  iszero\n  tag_21\n  jumpi\n    /* \"#utility.yul\":302:303   */\n  0x00\n    /* \"#utility.yul\":299:300   */\n  dup1\n    /* \"#utility.yul\":292:304   */\n  revert\n    /* \"#utility.yul\":261:263   */\ntag_21:\n    /* \"#utility.yul\":315:354   */\n  tag_22\n    /* \"#utility.yul\":347:353   */\n  dup5\n    /* \"#utility.yul\":342:345   */\n  dup3\n    /* \"#utility.yul\":337:340   */\n  dup6\n    /* \"#utility.yul\":315:354   */\n  tag_23\n  jump\t// in\ntag_22:\n    /* \"#utility.yul\":102:360   */\n  pop\n  swap4\n  swap3\n  pop\n  pop\n  pop\n  jump\t// out\n    /* \"#utility.yul\":380:668   */\ntag_24:\n  0x00\n    /* \"#utility.yul\":496:499   */\n  dup3\n    /* \"#utility.yul\":489:493   */\n  0x1f\n    /* \"#utility.yul\":481:487   */\n  dup4\n    /* \"#utility.yul\":477:494   */\n  add\n    /* \"#utility.yul\":473:500   */\n  slt\n    /* \"#utility.yul\":463:465   */\n  tag_26\n  jumpi\n    /* \"#utility.yul\":514:515   */\n  0x00\n    /* \"#utility.yul\":511:512   */\n  dup1\n    /* \"#utility.yul\":504:516   */\n  revert\n    /* \"#utility.yul\":463:465   */\ntag_26:\n    /* \"#utility.yul\":547:553   */\n  dup2\n    /* \"#utility.yul\":541:554   */\n  mload\n    /* \"#utility.yul\":572:662   */\n  tag_27\n    /* \"#utility.yul\":658:661   */\n  dup5\n    /* \"#utility.yul\":650:656   */\n  dup3\n    /* \"#utility.yul\":643:647   */\n  0x20\n    /* \"#utility.yul\":635:641   */\n  dup7\n    /* \"#utility.yul\":631:648   */\n  add\n    /* \"#utility.yul\":572:662   */\n  tag_15\n  jump\t// in\ntag_27:\n    /* \"#utility.yul\":563:662   */\n  swap2\n  pop\n    /* \"#utility.yul\":453:668   */\n  pop\n  swap3\n  swap2\n  pop\n  pop\n  jump\t// out\n    /* \"#utility.yul\":674:1064   */\ntag_3:\n  0x00\n    /* \"#utility.yul\":803:805   */\n  0x20\n    /* \"#utility.yul\":791:800   */\n  dup3\n    /* \"#utility.yul\":782:789   */\n  dup5\n    /* \"#utility.yul\":778:801   */\n  sub\n    /* \"#utility.yul\":774:806   */\n  slt\n    /* \"#utility.yul\":771:773   */\n  iszero\n  tag_29\n  jumpi\n    /* \"#utility.yul\":819:820   */\n  0x00\n    /* \"#utility.yul\":816:817   */\n  dup1\n    /* \"#utility.yul\":809:821   */\n  revert\n    /* \"#utility.yul\":771:773   */\ntag_29:\n    /* \"#utility.yul\":883:884   */\n  0x00\n    /* \"#utility.yul\":872:881   */\n  dup3\n    /* \"#utility.yul\":868:885   */\n  add\n    /* \"#utility.yul\":862:886   */\n  mload\n    /* \"#utility.yul\":913:931   */\n  0xffffffffffffffff\n    /* \"#utility.yul\":905:911   */\n  dup2\n    /* \"#utility.yul\":902:932   */\n  gt\n    /* \"#utility.yul\":899:901   */\n  iszero\n  tag_30\n  jumpi\n    /* \"#utility.yul\":945:946   */\n  0x00\n    /* \"#utility.yul\":942:943   */\n  dup1\n    /* \"#utility.yul\":935:947   */\n  revert\n    /* \"#utility.yul\":899:901   */\ntag_30:\n    /* \"#utility.yul\":973:1047   */\n  tag_31\n    /* \"#utility.yul\":1039:1046   */\n  dup5\n    /* \"#utility.yul\":1030:1036   */\n  dup3\n    /* \"#utility.yul\":1019:1028   */\n  dup6\n    /* \"#utility.yul\":1015:1037   */\n  add\n    /* \"#utility.yul\":973:1047   */\n  tag_24\n  jump\t// in\ntag_31:\n    /* \"#utility.yul\":963:1047   */\n  swap2\n  pop\n    /* \"#utility.yul\":833:1057   */\n  pop\n    /* \"#utility.yul\":761:1064   */\n  swap3\n  swap2\n  pop\n  pop\n  jump\t// out\n    /* \"#utility.yul\":1070:1434   */\ntag_32:\n  0x00\n    /* \"#utility.yul\":1186:1225   */\n  tag_34\n    /* \"#utility.yul\":1219:1224   */\n  dup3\n    /* \"#utility.yul\":1186:1225   */\n  tag_35\n  jump\t// in\ntag_34:\n    /* \"#utility.yul\":1241:1312   */\n  tag_36\n    /* \"#utility.yul\":1305:1311   */\n  dup2\n    /* \"#utility.yul\":1300:1303   */\n  dup6\n    /* \"#utility.yul\":1241:1312   */\n  tag_37\n  jump\t// in\ntag_36:\n    /* \"#utility.yul\":1234:1312   */\n  swap4\n  pop\n    /* \"#utility.yul\":1321:1373   */\n  tag_38\n    /* \"#utility.yul\":1366:1372   */\n  dup2\n    /* \"#utility.yul\":1361:1364   */\n  dup6\n    /* \"#utility.yul\":1354:1358   */\n  0x20\n    /* \"#utility.yul\":1347:1352   */\n  dup7\n    /* \"#utility.yul\":1343:1359   */\n  add\n    /* \"#utility.yul\":1321:1373   */\n  tag_23\n  jump\t// in\ntag_38:\n    /* \"#utility.yul\":1398:1427   */\n  tag_39\n    /* \"#utility.yul\":1420:1426   */\n  dup2\n    /* \"#utility.yul\":1398:1427   */\n  tag_40\n  jump\t// in\ntag_39:\n    /* \"#utility.yul\":1393:1396   */\n  dup5\n    /* \"#utility.yul\":1389:1428   */\n  add\n    /* \"#utility.yul\":1382:1428   */\n  swap2\n  pop\n    /* \"#utility.yul\":1162:1434   */\n  pop\n  swap3\n  swap2\n  pop\n  pop\n  jump\t// out\n    /* \"#utility.yul\":1440:1753   */\ntag_11:\n  0x00\n    /* \"#utility.yul\":1591:1593   */\n  0x20\n    /* \"#utility.yul\":1580:1589   */\n  dup3\n    /* \"#utility.yul\":1576:1594   */\n  add\n    /* \"#utility.yul\":1568:1594   */\n  swap1\n  pop\n    /* \"#utility.yul\":1640:1649   */\n  dup2\n    /* \"#utility.yul\":1634:1638   */\n  dup2\n    /* \"#utility.yul\":1630:1650   */\n  sub\n    /* \"#utility.yul\":1626:1627   */\n  0x00\n    /* \"#utility.yul\":1615:1624   */\n  dup4\n    /* \"#utility.yul\":1611:1628   */\n  add\n    /* \"#utility.yul\":1604:1651   */\n  mstore\n    /* \"#utility.yul\":1668:1746   */\n  tag_42\n    /* \"#utility.yul\":1741:1745   */\n  dup2\n    /* \"#utility.yul\":1732:1738   */\n  dup5\n    /* \"#utility.yul\":1668:1746   */\n  tag_32\n  jump\t// in\ntag_42:\n    /* \"#utility.yul\":1660:1746   */\n  swap1\n  pop\n    /* \"#utility.yul\":1558:1753   */\n  swap3\n  swap2\n  pop\n  pop\n  jump\t// out\n    /* \"#utility.yul\":1759:2042   */\ntag_20:\n  0x00\n    /* \"#utility.yul\":1825:1827   */\n  0x40\n    /* \"#utility.yul\":1819:1828   */\n  mload\n    /* \"#utility.yul\":1809:1828   */\n  swap1\n  pop\n    /* \"#utility.yul\":1867:1871   */\n  dup2\n    /* \"#utility.yul\":1859:1865   */\n  dup2\n    /* \"#utility.yul\":1855:1872   */\n  add\n    /* \"#utility.yul\":1974:1980   */\n  dup2\n    /* \"#utility.yul\":1962:1972   */\n  dup2\n    /* \"#utility.yul\":1959:1981   */\n  lt\n    /* \"#utility.yul\":1938:1956   */\n  0xffffffffffffffff\n    /* \"#utility.yul\":1926:1936   */\n  dup3\n    /* \"#utility.yul\":1923:1957   */\n  gt\n    /* \"#utility.yul\":1920:1982   */\n  or\n    /* \"#utility.yul\":1917:1919   */\n  iszero\n  tag_44\n  jumpi\n    /* \"#utility.yul\":1985:2003   */\n  tag_45\n  tag_46\n  jump\t// in\ntag_45:\n    /* \"#utility.yul\":1917:1919   */\ntag_44:\n    /* \"#utility.yul\":2025:2035   */\n  dup1\n    /* \"#utility.yul\":2021:2023   */\n  0x40\n    /* \"#utility.yul\":2014:2036   */\n  mstore\n    /* \"#utility.yul\":1799:2042   */\n  pop\n  swap2\n  swap1\n  pop\n  jump\t// out\n    /* \"#utility.yul\":2048:2380   */\ntag_19:\n  0x00\n    /* \"#utility.yul\":2200:2218   */\n  0xffffffffffffffff\n    /* \"#utility.yul\":2192:2198   */\n  dup3\n    /* \"#utility.yul\":2189:2219   */\n  gt\n    /* \"#utility.yul\":2186:2188   */\n  iszero\n  tag_48\n  jumpi\n    /* \"#utility.yul\":2222:2240   */\n  tag_49\n  tag_46\n  jump\t// in\ntag_49:\n    /* \"#utility.yul\":2186:2188   */\ntag_48:\n    /* \"#utility.yul\":2307:2311   */\n  0x1f\n    /* \"#utility.yul\":2303:2312   */\n  not\n    /* \"#utility.yul\":2296:2300   */\n  0x1f\n    /* \"#utility.yul\":2288:2294   */\n  dup4\n    /* \"#utility.yul\":2284:2301   */\n  add\n    /* \"#utility.yul\":2280:2313   */\n  and\n    /* \"#utility.yul\":2272:2313   */\n  swap1\n  pop\n    /* \"#utility.yul\":2368:2372   */\n  0x20\n    /* \"#utility.yul\":2362:2366   */\n  dup2\n    /* \"#utility.yul\":2358:2373   */\n  add\n    /* \"#utility.yul\":2350:2373   */\n  swap1\n  pop\n    /* \"#utility.yul\":2115:2380   */\n  swap2\n  swap1\n  pop\n  jump\t// out\n    /* \"#utility.yul\":2386:2485   */\ntag_35:\n  0x00\n    /* \"#utility.yul\":2472:2477   */\n  dup2\n    /* \"#utility.yul\":2466:2478   */\n  mload\n    /* \"#utility.yul\":2456:2478   */\n  swap1\n  pop\n    /* \"#utility.yul\":2445:2485   */\n  swap2\n  swap1\n  pop\n  jump\t// out\n    /* \"#utility.yul\":2491:2660   */\ntag_37:\n  0x00\n    /* \"#utility.yul\":2609:2615   */\n  dup3\n    /* \"#utility.yul\":2604:2607   */\n  dup3\n    /* \"#utility.yul\":2597:2616   */\n  mstore\n    /* \"#utility.yul\":2649:2653   */\n  0x20\n    /* \"#utility.yul\":2644:2647   */\n  dup3\n    /* \"#utility.yul\":2640:2654   */\n  add\n    /* \"#utility.yul\":2625:2654   */\n  swap1\n  pop\n    /* \"#utility.yul\":2587:2660   */\n  swap3\n  swap2\n  pop\n  pop\n  jump\t// out\n    /* \"#utility.yul\":2666:2973   */\ntag_23:\n    /* \"#utility.yul\":2734:2735   */\n  0x00\n    /* \"#utility.yul\":2744:2857   */\ntag_53:\n    /* \"#utility.yul\":2758:2764   */\n  dup4\n    /* \"#utility.yul\":2755:2756   */\n  dup2\n    /* \"#utility.yul\":2752:2765   */\n  lt\n    /* \"#utility.yul\":2744:2857   */\n  iszero\n  tag_55\n  jumpi\n    /* \"#utility.yul\":2843:2844   */\n  dup1\n    /* \"#utility.yul\":2838:2841   */\n  dup3\n    /* \"#utility.yul\":2834:2845   */\n  add\n    /* \"#utility.yul\":2828:2846   */\n  mload\n    /* \"#utility.yul\":2824:2825   */\n  dup2\n    /* \"#utility.yul\":2819:2822   */\n  dup5\n    /* \"#utility.yul\":2815:2826   */\n  add\n    /* \"#utility.yul\":2808:2847   */\n  mstore\n    /* \"#utility.yul\":2780:2782   */\n  0x20\n    /* \"#utility.yul\":2777:2778   */\n  dup2\n    /* \"#utility.yul\":2773:2783   */\n  add\n    /* \"#utility.yul\":2768:2783   */\n  swap1\n  pop\n    /* \"#utility.yul\":2744:2857   */\n  jump(tag_53)\ntag_55:\n    /* \"#utility.yul\":2875:2881   */\n  dup4\n    /* \"#utility.yul\":2872:2873   */\n  dup2\n    /* \"#utility.yul\":2869:2882   */\n  gt\n    /* \"#utility.yul\":2866:2868   */\n  iszero\n  tag_56\n  jumpi\n    /* \"#utility.yul\":2955:2956   */\n  0x00\n    /* \"#utility.yul\":2946:2952   */\n  dup5\n    /* \"#utility.yul\":2941:2944   */\n  dup5\n    /* \"#utility.yul\":2937:2953   */\n  add\n    /* \"#utility.yul\":2930:2957   */\n  mstore\n    /* \"#utility.yul\":2866:2868   */\ntag_56:\n    /* \"#utility.yul\":2715:2973   */\n  pop\n  pop\n  pop\n  pop\n  jump\t// out\n    /* \"#utility.yul\":2979:3159   */\ntag_46:\n    /* \"#utility.yul\":3027:3104   */\n  0x4e487b7100000000000000000000000000000000000000000000000000000000\n    /* \"#utility.yul\":3024:3025   */\n  0x00\n    /* \"#utility.yul\":3017:3105   */\n  mstore\n    /* \"#utility.yul\":3124:3128   */\n  0x41\n    /* \"#utility.yul\":3121:3122   */\n  0x04\n    /* \"#utility.yul\":3114:3129   */\n  mstore\n    /* \"#utility.yul\":3148:3152   */\n  0x24\n    /* \"#utility.yul\":3145:3146   */\n  0x00\n    /* \"#utility.yul\":3138:3153   */\n  revert\n    /* \"#utility.yul\":3165:3267   */\ntag_40:\n  0x00\n    /* \"#utility.yul\":3257:3259   */\n  0x1f\n    /* \"#utility.yul\":3253:3260   */\n  not\n    /* \"#utility.yul\":3248:3250   */\n  0x1f\n    /* \"#utility.yul\":3241:3246   */\n  dup4\n    /* \"#utility.yul\":3237:3251   */\n  add\n    /* \"#utility.yul\":3233:3261   */\n  and\n    /* \"#utility.yul\":3223:3261   */\n  swap1\n  pop\n    /* \"#utility.yul\":3213:3267   */\n  swap2\n  swap1\n  pop\n  jump\t// out\n    /* \"contracts/MyContact.sol\":481:896  contract MyContract is Ownable{... */\ntag_13:\n  dataSize(sub_0)\n  dup1\n  dataOffset(sub_0)\n  0x00\n  codecopy\n  0x00\n  return\nstop\n\nsub_0: assembly {\n        /* \"contracts/MyContact.sol\":481:896  contract MyContract is Ownable{... */\n      mstore(0x40, 0x80)\n      callvalue\n      dup1\n      iszero\n      tag_1\n      jumpi\n      0x00\n      dup1\n      revert\n    tag_1:\n      pop\n      jumpi(tag_2, lt(calldatasize, 0x04))\n      shr(0xe0, calldataload(0x00))\n      dup1\n      0x5b9fdc30\n      eq\n      tag_3\n      jumpi\n      dup1\n      0x8da5cb5b\n      eq\n      tag_4\n      jumpi\n    tag_2:\n      0x00\n      dup1\n      revert\n        /* \"contracts/MyContact.sol\":718:894  function getSecret() public view onlyOwner returns (string memory) {... */\n    tag_3:\n      tag_5\n      tag_6\n      jump\t// in\n    tag_5:\n      mload(0x40)\n      tag_7\n      swap2\n      swap1\n      tag_8\n      jump\t// in\n    tag_7:\n      mload(0x40)\n      dup1\n      swap2\n      sub\n      swap1\n      return\n        /* \"contracts/MyContact.sol\":79:99  address public owner */\n    tag_4:\n      tag_9\n      tag_10\n      jump\t// in\n    tag_9:\n      mload(0x40)\n      tag_11\n      swap2\n      swap1\n      tag_12\n      jump\t// in\n    tag_11:\n      mload(0x40)\n      dup1\n      swap2\n      sub\n      swap1\n      return\n        /* \"contracts/MyContact.sol\":718:894  function getSecret() public view onlyOwner returns (string memory) {... */\n    tag_6:\n        /* \"contracts/MyContact.sol\":770:783  string memory */\n      0x60\n        /* \"contracts/MyContact.sol\":220:225  owner */\n      0x00\n      dup1\n      sload\n      swap1\n      0x0100\n      exp\n      swap1\n      div\n      0xffffffffffffffffffffffffffffffffffffffff\n      and\n        /* \"contracts/MyContact.sol\":206:225  msg.sender == owner */\n      0xffffffffffffffffffffffffffffffffffffffff\n      and\n        /* \"contracts/MyContact.sol\":206:216  msg.sender */\n      caller\n        /* \"contracts/MyContact.sol\":206:225  msg.sender == owner */\n      0xffffffffffffffffffffffffffffffffffffffff\n      and\n      eq\n        /* \"contracts/MyContact.sol\":198:243  require(msg.sender == owner, 'must be owner') */\n      tag_14\n      jumpi\n      mload(0x40)\n      0x08c379a000000000000000000000000000000000000000000000000000000000\n      dup2\n      mstore\n      0x04\n      add\n      tag_15\n      swap1\n      tag_16\n      jump\t// in\n    tag_15:\n      mload(0x40)\n      dup1\n      swap2\n      sub\n      swap1\n      revert\n    tag_14:\n        /* \"contracts/MyContact.sol\":795:819  SecretValut _secretValut */\n      0x00\n        /* \"contracts/MyContact.sol\":834:845  secretValut */\n      0x01\n      0x00\n      swap1\n      sload\n      swap1\n      0x0100\n      exp\n      swap1\n      div\n      0xffffffffffffffffffffffffffffffffffffffff\n      and\n        /* \"contracts/MyContact.sol\":795:846  SecretValut _secretValut = SecretValut(secretValut) */\n      swap1\n      pop\n        /* \"contracts/MyContact.sol\":863:875  _secretValut */\n      dup1\n        /* \"contracts/MyContact.sol\":863:885  _secretValut.getSecret */\n      0xffffffffffffffffffffffffffffffffffffffff\n      and\n      0x5b9fdc30\n        /* \"contracts/MyContact.sol\":863:887  _secretValut.getSecret() */\n      mload(0x40)\n      dup2\n      0xffffffff\n      and\n      0xe0\n      shl\n      dup2\n      mstore\n      0x04\n      add\n      0x00\n      mload(0x40)\n      dup1\n      dup4\n      sub\n      dup2\n      dup7\n      dup1\n      extcodesize\n      iszero\n      dup1\n      iszero\n      tag_18\n      jumpi\n      0x00\n      dup1\n      revert\n    tag_18:\n      pop\n      gas\n      staticcall\n      iszero\n      dup1\n      iszero\n      tag_20\n      jumpi\n      returndatasize\n      0x00\n      dup1\n      returndatacopy\n      revert(0x00, returndatasize)\n    tag_20:\n      pop\n      pop\n      pop\n      pop\n      mload(0x40)\n      returndatasize\n      0x00\n      dup3\n      returndatacopy\n      returndatasize\n      not(0x1f)\n      0x1f\n      dup3\n      add\n      and\n      dup3\n      add\n      dup1\n      0x40\n      mstore\n      pop\n      dup2\n      add\n      swap1\n      tag_21\n      swap2\n      swap1\n      tag_22\n      jump\t// in\n    tag_21:\n        /* \"contracts/MyContact.sol\":856:887  return _secretValut.getSecret() */\n      swap2\n      pop\n      pop\n        /* \"contracts/MyContact.sol\":718:894  function getSecret() public view onlyOwner returns (string memory) {... */\n      swap1\n      jump\t// out\n        /* \"contracts/MyContact.sol\":79:99  address public owner */\n    tag_10:\n      0x00\n      dup1\n      sload\n      swap1\n      0x0100\n      exp\n      swap1\n      div\n      0xffffffffffffffffffffffffffffffffffffffff\n      and\n      dup2\n      jump\t// out\n        /* \"#utility.yul\":7:360   */\n    tag_24:\n      0x00\n        /* \"#utility.yul\":121:186   */\n      tag_26\n        /* \"#utility.yul\":136:185   */\n      tag_27\n        /* \"#utility.yul\":178:184   */\n      dup5\n        /* \"#utility.yul\":136:185   */\n      tag_28\n      jump\t// in\n    tag_27:\n        /* \"#utility.yul\":121:186   */\n      tag_29\n      jump\t// in\n    tag_26:\n        /* \"#utility.yul\":112:186   */\n      swap1\n      pop\n        /* \"#utility.yul\":209:215   */\n      dup3\n        /* \"#utility.yul\":202:207   */\n      dup2\n        /* \"#utility.yul\":195:216   */\n      mstore\n        /* \"#utility.yul\":247:251   */\n      0x20\n        /* \"#utility.yul\":240:245   */\n      dup2\n        /* \"#utility.yul\":236:252   */\n      add\n        /* \"#utility.yul\":285:288   */\n      dup5\n        /* \"#utility.yul\":276:282   */\n      dup5\n        /* \"#utility.yul\":271:274   */\n      dup5\n        /* \"#utility.yul\":267:283   */\n      add\n        /* \"#utility.yul\":264:289   */\n      gt\n        /* \"#utility.yul\":261:263   */\n      iszero\n      tag_30\n      jumpi\n        /* \"#utility.yul\":302:303   */\n      0x00\n        /* \"#utility.yul\":299:300   */\n      dup1\n        /* \"#utility.yul\":292:304   */\n      revert\n        /* \"#utility.yul\":261:263   */\n    tag_30:\n        /* \"#utility.yul\":315:354   */\n      tag_31\n        /* \"#utility.yul\":347:353   */\n      dup5\n        /* \"#utility.yul\":342:345   */\n      dup3\n        /* \"#utility.yul\":337:340   */\n      dup6\n        /* \"#utility.yul\":315:354   */\n      tag_32\n      jump\t// in\n    tag_31:\n        /* \"#utility.yul\":102:360   */\n      pop\n      swap4\n      swap3\n      pop\n      pop\n      pop\n      jump\t// out\n        /* \"#utility.yul\":380:668   */\n    tag_33:\n      0x00\n        /* \"#utility.yul\":496:499   */\n      dup3\n        /* \"#utility.yul\":489:493   */\n      0x1f\n        /* \"#utility.yul\":481:487   */\n      dup4\n        /* \"#utility.yul\":477:494   */\n      add\n        /* \"#utility.yul\":473:500   */\n      slt\n        /* \"#utility.yul\":463:465   */\n      tag_35\n      jumpi\n        /* \"#utility.yul\":514:515   */\n      0x00\n        /* \"#utility.yul\":511:512   */\n      dup1\n        /* \"#utility.yul\":504:516   */\n      revert\n        /* \"#utility.yul\":463:465   */\n    tag_35:\n        /* \"#utility.yul\":547:553   */\n      dup2\n        /* \"#utility.yul\":541:554   */\n      mload\n        /* \"#utility.yul\":572:662   */\n      tag_36\n        /* \"#utility.yul\":658:661   */\n      dup5\n        /* \"#utility.yul\":650:656   */\n      dup3\n        /* \"#utility.yul\":643:647   */\n      0x20\n        /* \"#utility.yul\":635:641   */\n      dup7\n        /* \"#utility.yul\":631:648   */\n      add\n        /* \"#utility.yul\":572:662   */\n      tag_24\n      jump\t// in\n    tag_36:\n        /* \"#utility.yul\":563:662   */\n      swap2\n      pop\n        /* \"#utility.yul\":453:668   */\n      pop\n      swap3\n      swap2\n      pop\n      pop\n      jump\t// out\n        /* \"#utility.yul\":674:1064   */\n    tag_22:\n      0x00\n        /* \"#utility.yul\":803:805   */\n      0x20\n        /* \"#utility.yul\":791:800   */\n      dup3\n        /* \"#utility.yul\":782:789   */\n      dup5\n        /* \"#utility.yul\":778:801   */\n      sub\n        /* \"#utility.yul\":774:806   */\n      slt\n        /* \"#utility.yul\":771:773   */\n      iszero\n      tag_38\n      jumpi\n        /* \"#utility.yul\":819:820   */\n      0x00\n        /* \"#utility.yul\":816:817   */\n      dup1\n        /* \"#utility.yul\":809:821   */\n      revert\n        /* \"#utility.yul\":771:773   */\n    tag_38:\n        /* \"#utility.yul\":883:884   */\n      0x00\n        /* \"#utility.yul\":872:881   */\n      dup3\n        /* \"#utility.yul\":868:885   */\n      add\n        /* \"#utility.yul\":862:886   */\n      mload\n        /* \"#utility.yul\":913:931   */\n      0xffffffffffffffff\n        /* \"#utility.yul\":905:911   */\n      dup2\n        /* \"#utility.yul\":902:932   */\n      gt\n        /* \"#utility.yul\":899:901   */\n      iszero\n      tag_39\n      jumpi\n        /* \"#utility.yul\":945:946   */\n      0x00\n        /* \"#utility.yul\":942:943   */\n      dup1\n        /* \"#utility.yul\":935:947   */\n      revert\n        /* \"#utility.yul\":899:901   */\n    tag_39:\n        /* \"#utility.yul\":973:1047   */\n      tag_40\n        /* \"#utility.yul\":1039:1046   */\n      dup5\n        /* \"#utility.yul\":1030:1036   */\n      dup3\n        /* \"#utility.yul\":1019:1028   */\n      dup6\n        /* \"#utility.yul\":1015:1037   */\n      add\n        /* \"#utility.yul\":973:1047   */\n      tag_33\n      jump\t// in\n    tag_40:\n        /* \"#utility.yul\":963:1047   */\n      swap2\n      pop\n        /* \"#utility.yul\":833:1057   */\n      pop\n        /* \"#utility.yul\":761:1064   */\n      swap3\n      swap2\n      pop\n      pop\n      jump\t// out\n        /* \"#utility.yul\":1070:1188   */\n    tag_41:\n        /* \"#utility.yul\":1157:1181   */\n      tag_43\n        /* \"#utility.yul\":1175:1180   */\n      dup2\n        /* \"#utility.yul\":1157:1181   */\n      tag_44\n      jump\t// in\n    tag_43:\n        /* \"#utility.yul\":1152:1155   */\n      dup3\n        /* \"#utility.yul\":1145:1182   */\n      mstore\n        /* \"#utility.yul\":1135:1188   */\n      pop\n      pop\n      jump\t// out\n        /* \"#utility.yul\":1194:1558   */\n    tag_45:\n      0x00\n        /* \"#utility.yul\":1310:1349   */\n      tag_47\n        /* \"#utility.yul\":1343:1348   */\n      dup3\n        /* \"#utility.yul\":1310:1349   */\n      tag_48\n      jump\t// in\n    tag_47:\n        /* \"#utility.yul\":1365:1436   */\n      tag_49\n        /* \"#utility.yul\":1429:1435   */\n      dup2\n        /* \"#utility.yul\":1424:1427   */\n      dup6\n        /* \"#utility.yul\":1365:1436   */\n      tag_50\n      jump\t// in\n    tag_49:\n        /* \"#utility.yul\":1358:1436   */\n      swap4\n      pop\n        /* \"#utility.yul\":1445:1497   */\n      tag_51\n        /* \"#utility.yul\":1490:1496   */\n      dup2\n        /* \"#utility.yul\":1485:1488   */\n      dup6\n        /* \"#utility.yul\":1478:1482   */\n      0x20\n        /* \"#utility.yul\":1471:1476   */\n      dup7\n        /* \"#utility.yul\":1467:1483   */\n      add\n        /* \"#utility.yul\":1445:1497   */\n      tag_32\n      jump\t// in\n    tag_51:\n        /* \"#utility.yul\":1522:1551   */\n      tag_52\n        /* \"#utility.yul\":1544:1550   */\n      dup2\n        /* \"#utility.yul\":1522:1551   */\n      tag_53\n      jump\t// in\n    tag_52:\n        /* \"#utility.yul\":1517:1520   */\n      dup5\n        /* \"#utility.yul\":1513:1552   */\n      add\n        /* \"#utility.yul\":1506:1552   */\n      swap2\n      pop\n        /* \"#utility.yul\":1286:1558   */\n      pop\n      swap3\n      swap2\n      pop\n      pop\n      jump\t// out\n        /* \"#utility.yul\":1564:1875   */\n    tag_54:\n      0x00\n        /* \"#utility.yul\":1727:1794   */\n      tag_56\n        /* \"#utility.yul\":1791:1793   */\n      0x0d\n        /* \"#utility.yul\":1786:1789   */\n      dup4\n        /* \"#utility.yul\":1727:1794   */\n      tag_50\n      jump\t// in\n    tag_56:\n        /* \"#utility.yul\":1720:1794   */\n      swap2\n      pop\n        /* \"#utility.yul\":1824:1839   */\n      0x6d757374206265206f776e657200000000000000000000000000000000000000\n        /* \"#utility.yul\":1820:1821   */\n      0x00\n        /* \"#utility.yul\":1815:1818   */\n      dup4\n        /* \"#utility.yul\":1811:1822   */\n      add\n        /* \"#utility.yul\":1804:1840   */\n      mstore\n        /* \"#utility.yul\":1866:1868   */\n      0x20\n        /* \"#utility.yul\":1861:1864   */\n      dup3\n        /* \"#utility.yul\":1857:1869   */\n      add\n        /* \"#utility.yul\":1850:1869   */\n      swap1\n      pop\n        /* \"#utility.yul\":1710:1875   */\n      swap2\n      swap1\n      pop\n      jump\t// out\n        /* \"#utility.yul\":1881:2103   */\n    tag_12:\n      0x00\n        /* \"#utility.yul\":2012:2014   */\n      0x20\n        /* \"#utility.yul\":2001:2010   */\n      dup3\n        /* \"#utility.yul\":1997:2015   */\n      add\n        /* \"#utility.yul\":1989:2015   */\n      swap1\n      pop\n        /* \"#utility.yul\":2025:2096   */\n      tag_58\n        /* \"#utility.yul\":2093:2094   */\n      0x00\n        /* \"#utility.yul\":2082:2091   */\n      dup4\n        /* \"#utility.yul\":2078:2095   */\n      add\n        /* \"#utility.yul\":2069:2075   */\n      dup5\n        /* \"#utility.yul\":2025:2096   */\n      tag_41\n      jump\t// in\n    tag_58:\n        /* \"#utility.yul\":1979:2103   */\n      swap3\n      swap2\n      pop\n      pop\n      jump\t// out\n        /* \"#utility.yul\":2109:2422   */\n    tag_8:\n      0x00\n        /* \"#utility.yul\":2260:2262   */\n      0x20\n        /* \"#utility.yul\":2249:2258   */\n      dup3\n        /* \"#utility.yul\":2245:2263   */\n      add\n        /* \"#utility.yul\":2237:2263   */\n      swap1\n      pop\n        /* \"#utility.yul\":2309:2318   */\n      dup2\n        /* \"#utility.yul\":2303:2307   */\n      dup2\n        /* \"#utility.yul\":2299:2319   */\n      sub\n        /* \"#utility.yul\":2295:2296   */\n      0x00\n        /* \"#utility.yul\":2284:2293   */\n      dup4\n        /* \"#utility.yul\":2280:2297   */\n      add\n        /* \"#utility.yul\":2273:2320   */\n      mstore\n        /* \"#utility.yul\":2337:2415   */\n      tag_60\n        /* \"#utility.yul\":2410:2414   */\n      dup2\n        /* \"#utility.yul\":2401:2407   */\n      dup5\n        /* \"#utility.yul\":2337:2415   */\n      tag_45\n      jump\t// in\n    tag_60:\n        /* \"#utility.yul\":2329:2415   */\n      swap1\n      pop\n        /* \"#utility.yul\":2227:2422   */\n      swap3\n      swap2\n      pop\n      pop\n      jump\t// out\n        /* \"#utility.yul\":2428:2847   */\n    tag_16:\n      0x00\n        /* \"#utility.yul\":2632:2634   */\n      0x20\n        /* \"#utility.yul\":2621:2630   */\n      dup3\n        /* \"#utility.yul\":2617:2635   */\n      add\n        /* \"#utility.yul\":2609:2635   */\n      swap1\n      pop\n        /* \"#utility.yul\":2681:2690   */\n      dup2\n        /* \"#utility.yul\":2675:2679   */\n      dup2\n        /* \"#utility.yul\":2671:2691   */\n      sub\n        /* \"#utility.yul\":2667:2668   */\n      0x00\n        /* \"#utility.yul\":2656:2665   */\n      dup4\n        /* \"#utility.yul\":2652:2669   */\n      add\n        /* \"#utility.yul\":2645:2692   */\n      mstore\n        /* \"#utility.yul\":2709:2840   */\n      tag_62\n        /* \"#utility.yul\":2835:2839   */\n      dup2\n        /* \"#utility.yul\":2709:2840   */\n      tag_54\n      jump\t// in\n    tag_62:\n        /* \"#utility.yul\":2701:2840   */\n      swap1\n      pop\n        /* \"#utility.yul\":2599:2847   */\n      swap2\n      swap1\n      pop\n      jump\t// out\n        /* \"#utility.yul\":2853:3136   */\n    tag_29:\n      0x00\n        /* \"#utility.yul\":2919:2921   */\n      0x40\n        /* \"#utility.yul\":2913:2922   */\n      mload\n        /* \"#utility.yul\":2903:2922   */\n      swap1\n      pop\n        /* \"#utility.yul\":2961:2965   */\n      dup2\n        /* \"#utility.yul\":2953:2959   */\n      dup2\n        /* \"#utility.yul\":2949:2966   */\n      add\n        /* \"#utility.yul\":3068:3074   */\n      dup2\n        /* \"#utility.yul\":3056:3066   */\n      dup2\n        /* \"#utility.yul\":3053:3075   */\n      lt\n        /* \"#utility.yul\":3032:3050   */\n      0xffffffffffffffff\n        /* \"#utility.yul\":3020:3030   */\n      dup3\n        /* \"#utility.yul\":3017:3051   */\n      gt\n        /* \"#utility.yul\":3014:3076   */\n      or\n        /* \"#utility.yul\":3011:3013   */\n      iszero\n      tag_64\n      jumpi\n        /* \"#utility.yul\":3079:3097   */\n      tag_65\n      tag_66\n      jump\t// in\n    tag_65:\n        /* \"#utility.yul\":3011:3013   */\n    tag_64:\n        /* \"#utility.yul\":3119:3129   */\n      dup1\n        /* \"#utility.yul\":3115:3117   */\n      0x40\n        /* \"#utility.yul\":3108:3130   */\n      mstore\n        /* \"#utility.yul\":2893:3136   */\n      pop\n      swap2\n      swap1\n      pop\n      jump\t// out\n        /* \"#utility.yul\":3142:3474   */\n    tag_28:\n      0x00\n        /* \"#utility.yul\":3294:3312   */\n      0xffffffffffffffff\n        /* \"#utility.yul\":3286:3292   */\n      dup3\n        /* \"#utility.yul\":3283:3313   */\n      gt\n        /* \"#utility.yul\":3280:3282   */\n      iszero\n      tag_68\n      jumpi\n        /* \"#utility.yul\":3316:3334   */\n      tag_69\n      tag_66\n      jump\t// in\n    tag_69:\n        /* \"#utility.yul\":3280:3282   */\n    tag_68:\n        /* \"#utility.yul\":3401:3405   */\n      0x1f\n        /* \"#utility.yul\":3397:3406   */\n      not\n        /* \"#utility.yul\":3390:3394   */\n      0x1f\n        /* \"#utility.yul\":3382:3388   */\n      dup4\n        /* \"#utility.yul\":3378:3395   */\n      add\n        /* \"#utility.yul\":3374:3407   */\n      and\n        /* \"#utility.yul\":3366:3407   */\n      swap1\n      pop\n        /* \"#utility.yul\":3462:3466   */\n      0x20\n        /* \"#utility.yul\":3456:3460   */\n      dup2\n        /* \"#utility.yul\":3452:3467   */\n      add\n        /* \"#utility.yul\":3444:3467   */\n      swap1\n      pop\n        /* \"#utility.yul\":3209:3474   */\n      swap2\n      swap1\n      pop\n      jump\t// out\n        /* \"#utility.yul\":3480:3579   */\n    tag_48:\n      0x00\n        /* \"#utility.yul\":3566:3571   */\n      dup2\n        /* \"#utility.yul\":3560:3572   */\n      mload\n        /* \"#utility.yul\":3550:3572   */\n      swap1\n      pop\n        /* \"#utility.yul\":3539:3579   */\n      swap2\n      swap1\n      pop\n      jump\t// out\n        /* \"#utility.yul\":3585:3754   */\n    tag_50:\n      0x00\n        /* \"#utility.yul\":3703:3709   */\n      dup3\n        /* \"#utility.yul\":3698:3701   */\n      dup3\n        /* \"#utility.yul\":3691:3710   */\n      mstore\n        /* \"#utility.yul\":3743:3747   */\n      0x20\n        /* \"#utility.yul\":3738:3741   */\n      dup3\n        /* \"#utility.yul\":3734:3748   */\n      add\n        /* \"#utility.yul\":3719:3748   */\n      swap1\n      pop\n        /* \"#utility.yul\":3681:3754   */\n      swap3\n      swap2\n      pop\n      pop\n      jump\t// out\n        /* \"#utility.yul\":3760:3856   */\n    tag_44:\n      0x00\n        /* \"#utility.yul\":3826:3850   */\n      tag_73\n        /* \"#utility.yul\":3844:3849   */\n      dup3\n        /* \"#utility.yul\":3826:3850   */\n      tag_74\n      jump\t// in\n    tag_73:\n        /* \"#utility.yul\":3815:3850   */\n      swap1\n      pop\n        /* \"#utility.yul\":3805:3856   */\n      swap2\n      swap1\n      pop\n      jump\t// out\n        /* \"#utility.yul\":3862:3988   */\n    tag_74:\n      0x00\n        /* \"#utility.yul\":3939:3981   */\n      0xffffffffffffffffffffffffffffffffffffffff\n        /* \"#utility.yul\":3932:3937   */\n      dup3\n        /* \"#utility.yul\":3928:3982   */\n      and\n        /* \"#utility.yul\":3917:3982   */\n      swap1\n      pop\n        /* \"#utility.yul\":3907:3988   */\n      swap2\n      swap1\n      pop\n      jump\t// out\n        /* \"#utility.yul\":3994:4301   */\n    tag_32:\n        /* \"#utility.yul\":4062:4063   */\n      0x00\n        /* \"#utility.yul\":4072:4185   */\n    tag_77:\n        /* \"#utility.yul\":4086:4092   */\n      dup4\n        /* \"#utility.yul\":4083:4084   */\n      dup2\n        /* \"#utility.yul\":4080:4093   */\n      lt\n        /* \"#utility.yul\":4072:4185   */\n      iszero\n      tag_79\n      jumpi\n        /* \"#utility.yul\":4171:4172   */\n      dup1\n        /* \"#utility.yul\":4166:4169   */\n      dup3\n        /* \"#utility.yul\":4162:4173   */\n      add\n        /* \"#utility.yul\":4156:4174   */\n      mload\n        /* \"#utility.yul\":4152:4153   */\n      dup2\n        /* \"#utility.yul\":4147:4150   */\n      dup5\n        /* \"#utility.yul\":4143:4154   */\n      add\n        /* \"#utility.yul\":4136:4175   */\n      mstore\n        /* \"#utility.yul\":4108:4110   */\n      0x20\n        /* \"#utility.yul\":4105:4106   */\n      dup2\n        /* \"#utility.yul\":4101:4111   */\n      add\n        /* \"#utility.yul\":4096:4111   */\n      swap1\n      pop\n        /* \"#utility.yul\":4072:4185   */\n      jump(tag_77)\n    tag_79:\n        /* \"#utility.yul\":4203:4209   */\n      dup4\n        /* \"#utility.yul\":4200:4201   */\n      dup2\n        /* \"#utility.yul\":4197:4210   */\n      gt\n        /* \"#utility.yul\":4194:4196   */\n      iszero\n      tag_80\n      jumpi\n        /* \"#utility.yul\":4283:4284   */\n      0x00\n        /* \"#utility.yul\":4274:4280   */\n      dup5\n        /* \"#utility.yul\":4269:4272   */\n      dup5\n        /* \"#utility.yul\":4265:4281   */\n      add\n        /* \"#utility.yul\":4258:4285   */\n      mstore\n        /* \"#utility.yul\":4194:4196   */\n    tag_80:\n        /* \"#utility.yul\":4043:4301   */\n      pop\n      pop\n      pop\n      pop\n      jump\t// out\n        /* \"#utility.yul\":4307:4487   */\n    tag_66:\n        /* \"#utility.yul\":4355:4432   */\n      0x4e487b7100000000000000000000000000000000000000000000000000000000\n        /* \"#utility.yul\":4352:4353   */\n      0x00\n        /* \"#utility.yul\":4345:4433   */\n      mstore\n        /* \"#utility.yul\":4452:4456   */\n      0x41\n        /* \"#utility.yul\":4449:4450   */\n      0x04\n        /* \"#utility.yul\":4442:4457   */\n      mstore\n        /* \"#utility.yul\":4476:4480   */\n      0x24\n        /* \"#utility.yul\":4473:4474   */\n      0x00\n        /* \"#utility.yul\":4466:4481   */\n      revert\n        /* \"#utility.yul\":4493:4595   */\n    tag_53:\n      0x00\n        /* \"#utility.yul\":4585:4587   */\n      0x1f\n        /* \"#utility.yul\":4581:4588   */\n      not\n        /* \"#utility.yul\":4576:4578   */\n      0x1f\n        /* \"#utility.yul\":4569:4574   */\n      dup4\n        /* \"#utility.yul\":4565:4579   */\n      add\n        /* \"#utility.yul\":4561:4589   */\n      and\n        /* \"#utility.yul\":4551:4589   */\n      swap1\n      pop\n        /* \"#utility.yul\":4541:4595   */\n      swap2\n      swap1\n      pop\n      jump\t// out\n\n    auxdata: 0xa2646970667358221220c525f9a7fd4a82a4342fcad916fa45099f47317bb14969a87fbcfbedc310bccb64736f6c63430008000033\n}\n\nsub_1: assembly {\n        /* \"contracts/MyContact.sol\":266:479  contract SecretValut{... */\n      mstore(0x40, 0x80)\n        /* \"contracts/MyContact.sol\":312:386  constructor(string memory _secret) public{... */\n      callvalue\n      dup1\n      iszero\n      tag_1\n      jumpi\n      0x00\n      dup1\n      revert\n    tag_1:\n      pop\n      mload(0x40)\n      sub(codesize, bytecodeSize)\n      dup1\n      bytecodeSize\n      dup4\n      codecopy\n      dup2\n      dup2\n      add\n      0x40\n      mstore\n      dup2\n      add\n      swap1\n      tag_2\n      swap2\n      swap1\n      tag_3\n      jump\t// in\n    tag_2:\n        /* \"contracts/MyContact.sol\":372:379  _secret */\n      dup1\n        /* \"contracts/MyContact.sol\":363:369  secret */\n      0x00\n        /* \"contracts/MyContact.sol\":363:379  secret = _secret */\n      swap1\n      dup1\n      mload\n      swap1\n      0x20\n      add\n      swap1\n      tag_6\n      swap3\n      swap2\n      swap1\n      tag_7\n      jump\t// in\n    tag_6:\n      pop\n        /* \"contracts/MyContact.sol\":312:386  constructor(string memory _secret) public{... */\n      pop\n        /* \"contracts/MyContact.sol\":266:479  contract SecretValut{... */\n      jump(tag_8)\n    tag_7:\n      dup3\n      dup1\n      sload\n      tag_9\n      swap1\n      tag_10\n      jump\t// in\n    tag_9:\n      swap1\n      0x00\n      mstore\n      keccak256(0x00, 0x20)\n      swap1\n      0x1f\n      add\n      0x20\n      swap1\n      div\n      dup2\n      add\n      swap3\n      dup3\n      tag_12\n      jumpi\n      0x00\n      dup6\n      sstore\n      jump(tag_11)\n    tag_12:\n      dup3\n      0x1f\n      lt\n      tag_13\n      jumpi\n      dup1\n      mload\n      not(0xff)\n      and\n      dup4\n      dup1\n      add\n      or\n      dup6\n      sstore\n      jump(tag_11)\n    tag_13:\n      dup3\n      dup1\n      add\n      0x01\n      add\n      dup6\n      sstore\n      dup3\n      iszero\n      tag_11\n      jumpi\n      swap2\n      dup3\n      add\n    tag_14:\n      dup3\n      dup2\n      gt\n      iszero\n      tag_15\n      jumpi\n      dup3\n      mload\n      dup3\n      sstore\n      swap2\n      0x20\n      add\n      swap2\n      swap1\n      0x01\n      add\n      swap1\n      jump(tag_14)\n    tag_15:\n    tag_11:\n      pop\n      swap1\n      pop\n      tag_16\n      swap2\n      swap1\n      tag_17\n      jump\t// in\n    tag_16:\n      pop\n      swap1\n      jump\t// out\n    tag_17:\n    tag_18:\n      dup1\n      dup3\n      gt\n      iszero\n      tag_19\n      jumpi\n      0x00\n      dup2\n      0x00\n      swap1\n      sstore\n      pop\n      0x01\n      add\n      jump(tag_18)\n    tag_19:\n      pop\n      swap1\n      jump\t// out\n        /* \"#utility.yul\":7:360   */\n    tag_21:\n      0x00\n        /* \"#utility.yul\":121:186   */\n      tag_23\n        /* \"#utility.yul\":136:185   */\n      tag_24\n        /* \"#utility.yul\":178:184   */\n      dup5\n        /* \"#utility.yul\":136:185   */\n      tag_25\n      jump\t// in\n    tag_24:\n        /* \"#utility.yul\":121:186   */\n      tag_26\n      jump\t// in\n    tag_23:\n        /* \"#utility.yul\":112:186   */\n      swap1\n      pop\n        /* \"#utility.yul\":209:215   */\n      dup3\n        /* \"#utility.yul\":202:207   */\n      dup2\n        /* \"#utility.yul\":195:216   */\n      mstore\n        /* \"#utility.yul\":247:251   */\n      0x20\n        /* \"#utility.yul\":240:245   */\n      dup2\n        /* \"#utility.yul\":236:252   */\n      add\n        /* \"#utility.yul\":285:288   */\n      dup5\n        /* \"#utility.yul\":276:282   */\n      dup5\n        /* \"#utility.yul\":271:274   */\n      dup5\n        /* \"#utility.yul\":267:283   */\n      add\n        /* \"#utility.yul\":264:289   */\n      gt\n        /* \"#utility.yul\":261:263   */\n      iszero\n      tag_27\n      jumpi\n        /* \"#utility.yul\":302:303   */\n      0x00\n        /* \"#utility.yul\":299:300   */\n      dup1\n        /* \"#utility.yul\":292:304   */\n      revert\n        /* \"#utility.yul\":261:263   */\n    tag_27:\n        /* \"#utility.yul\":315:354   */\n      tag_28\n        /* \"#utility.yul\":347:353   */\n      dup5\n        /* \"#utility.yul\":342:345   */\n      dup3\n        /* \"#utility.yul\":337:340   */\n      dup6\n        /* \"#utility.yul\":315:354   */\n      tag_29\n      jump\t// in\n    tag_28:\n        /* \"#utility.yul\":102:360   */\n      pop\n      swap4\n      swap3\n      pop\n      pop\n      pop\n      jump\t// out\n        /* \"#utility.yul\":380:668   */\n    tag_30:\n      0x00\n        /* \"#utility.yul\":496:499   */\n      dup3\n        /* \"#utility.yul\":489:493   */\n      0x1f\n        /* \"#utility.yul\":481:487   */\n      dup4\n        /* \"#utility.yul\":477:494   */\n      add\n        /* \"#utility.yul\":473:500   */\n      slt\n        /* \"#utility.yul\":463:465   */\n      tag_32\n      jumpi\n        /* \"#utility.yul\":514:515   */\n      0x00\n        /* \"#utility.yul\":511:512   */\n      dup1\n        /* \"#utility.yul\":504:516   */\n      revert\n        /* \"#utility.yul\":463:465   */\n    tag_32:\n        /* \"#utility.yul\":547:553   */\n      dup2\n        /* \"#utility.yul\":541:554   */\n      mload\n        /* \"#utility.yul\":572:662   */\n      tag_33\n        /* \"#utility.yul\":658:661   */\n      dup5\n        /* \"#utility.yul\":650:656   */\n      dup3\n        /* \"#utility.yul\":643:647   */\n      0x20\n        /* \"#utility.yul\":635:641   */\n      dup7\n        /* \"#utility.yul\":631:648   */\n      add\n        /* \"#utility.yul\":572:662   */\n      tag_21\n      jump\t// in\n    tag_33:\n        /* \"#utility.yul\":563:662   */\n      swap2\n      pop\n        /* \"#utility.yul\":453:668   */\n      pop\n      swap3\n      swap2\n      pop\n      pop\n      jump\t// out\n        /* \"#utility.yul\":674:1064   */\n    tag_3:\n      0x00\n        /* \"#utility.yul\":803:805   */\n      0x20\n        /* \"#utility.yul\":791:800   */\n      dup3\n        /* \"#utility.yul\":782:789   */\n      dup5\n        /* \"#utility.yul\":778:801   */\n      sub\n        /* \"#utility.yul\":774:806   */\n      slt\n        /* \"#utility.yul\":771:773   */\n      iszero\n      tag_35\n      jumpi\n        /* \"#utility.yul\":819:820   */\n      0x00\n        /* \"#utility.yul\":816:817   */\n      dup1\n        /* \"#utility.yul\":809:821   */\n      revert\n        /* \"#utility.yul\":771:773   */\n    tag_35:\n        /* \"#utility.yul\":883:884   */\n      0x00\n        /* \"#utility.yul\":872:881   */\n      dup3\n        /* \"#utility.yul\":868:885   */\n      add\n        /* \"#utility.yul\":862:886   */\n      mload\n        /* \"#utility.yul\":913:931   */\n      0xffffffffffffffff\n        /* \"#utility.yul\":905:911   */\n      dup2\n        /* \"#utility.yul\":902:932   */\n      gt\n        /* \"#utility.yul\":899:901   */\n      iszero\n      tag_36\n      jumpi\n        /* \"#utility.yul\":945:946   */\n      0x00\n        /* \"#utility.yul\":942:943   */\n      dup1\n        /* \"#utility.yul\":935:947   */\n      revert\n        /* \"#utility.yul\":899:901   */\n    tag_36:\n        /* \"#utility.yul\":973:1047   */\n      tag_37\n        /* \"#utility.yul\":1039:1046   */\n      dup5\n        /* \"#utility.yul\":1030:1036   */\n      dup3\n        /* \"#utility.yul\":1019:1028   */\n      dup6\n        /* \"#utility.yul\":1015:1037   */\n      add\n        /* \"#utility.yul\":973:1047   */\n      tag_30\n      jump\t// in\n    tag_37:\n        /* \"#utility.yul\":963:1047   */\n      swap2\n      pop\n        /* \"#utility.yul\":833:1057   */\n      pop\n        /* \"#utility.yul\":761:1064   */\n      swap3\n      swap2\n      pop\n      pop\n      jump\t// out\n        /* \"#utility.yul\":1070:1353   */\n    tag_26:\n      0x00\n        /* \"#utility.yul\":1136:1138   */\n      0x40\n        /* \"#utility.yul\":1130:1139   */\n      mload\n        /* \"#utility.yul\":1120:1139   */\n      swap1\n      pop\n        /* \"#utility.yul\":1178:1182   */\n      dup2\n        /* \"#utility.yul\":1170:1176   */\n      dup2\n        /* \"#utility.yul\":1166:1183   */\n      add\n        /* \"#utility.yul\":1285:1291   */\n      dup2\n        /* \"#utility.yul\":1273:1283   */\n      dup2\n        /* \"#utility.yul\":1270:1292   */\n      lt\n        /* \"#utility.yul\":1249:1267   */\n      0xffffffffffffffff\n        /* \"#utility.yul\":1237:1247   */\n      dup3\n        /* \"#utility.yul\":1234:1268   */\n      gt\n        /* \"#utility.yul\":1231:1293   */\n      or\n        /* \"#utility.yul\":1228:1230   */\n      iszero\n      tag_39\n      jumpi\n        /* \"#utility.yul\":1296:1314   */\n      tag_40\n      tag_41\n      jump\t// in\n    tag_40:\n        /* \"#utility.yul\":1228:1230   */\n    tag_39:\n        /* \"#utility.yul\":1336:1346   */\n      dup1\n        /* \"#utility.yul\":1332:1334   */\n      0x40\n        /* \"#utility.yul\":1325:1347   */\n      mstore\n        /* \"#utility.yul\":1110:1353   */\n      pop\n      swap2\n      swap1\n      pop\n      jump\t// out\n        /* \"#utility.yul\":1359:1691   */\n    tag_25:\n      0x00\n        /* \"#utility.yul\":1511:1529   */\n      0xffffffffffffffff\n        /* \"#utility.yul\":1503:1509   */\n      dup3\n        /* \"#utility.yul\":1500:1530   */\n      gt\n        /* \"#utility.yul\":1497:1499   */\n      iszero\n      tag_43\n      jumpi\n        /* \"#utility.yul\":1533:1551   */\n      tag_44\n      tag_41\n      jump\t// in\n    tag_44:\n        /* \"#utility.yul\":1497:1499   */\n    tag_43:\n        /* \"#utility.yul\":1618:1622   */\n      0x1f\n        /* \"#utility.yul\":1614:1623   */\n      not\n        /* \"#utility.yul\":1607:1611   */\n      0x1f\n        /* \"#utility.yul\":1599:1605   */\n      dup4\n        /* \"#utility.yul\":1595:1612   */\n      add\n        /* \"#utility.yul\":1591:1624   */\n      and\n        /* \"#utility.yul\":1583:1624   */\n      swap1\n      pop\n        /* \"#utility.yul\":1679:1683   */\n      0x20\n        /* \"#utility.yul\":1673:1677   */\n      dup2\n        /* \"#utility.yul\":1669:1684   */\n      add\n        /* \"#utility.yul\":1661:1684   */\n      swap1\n      pop\n        /* \"#utility.yul\":1426:1691   */\n      swap2\n      swap1\n      pop\n      jump\t// out\n        /* \"#utility.yul\":1697:2004   */\n    tag_29:\n        /* \"#utility.yul\":1765:1766   */\n      0x00\n        /* \"#utility.yul\":1775:1888   */\n    tag_46:\n        /* \"#utility.yul\":1789:1795   */\n      dup4\n        /* \"#utility.yul\":1786:1787   */\n      dup2\n        /* \"#utility.yul\":1783:1796   */\n      lt\n        /* \"#utility.yul\":1775:1888   */\n      iszero\n      tag_48\n      jumpi\n        /* \"#utility.yul\":1874:1875   */\n      dup1\n        /* \"#utility.yul\":1869:1872   */\n      dup3\n        /* \"#utility.yul\":1865:1876   */\n      add\n        /* \"#utility.yul\":1859:1877   */\n      mload\n        /* \"#utility.yul\":1855:1856   */\n      dup2\n        /* \"#utility.yul\":1850:1853   */\n      dup5\n        /* \"#utility.yul\":1846:1857   */\n      add\n        /* \"#utility.yul\":1839:1878   */\n      mstore\n        /* \"#utility.yul\":1811:1813   */\n      0x20\n        /* \"#utility.yul\":1808:1809   */\n      dup2\n        /* \"#utility.yul\":1804:1814   */\n      add\n        /* \"#utility.yul\":1799:1814   */\n      swap1\n      pop\n        /* \"#utility.yul\":1775:1888   */\n      jump(tag_46)\n    tag_48:\n        /* \"#utility.yul\":1906:1912   */\n      dup4\n        /* \"#utility.yul\":1903:1904   */\n      dup2\n        /* \"#utility.yul\":1900:1913   */\n      gt\n        /* \"#utility.yul\":1897:1899   */\n      iszero\n      tag_49\n      jumpi\n        /* \"#utility.yul\":1986:1987   */\n      0x00\n        /* \"#utility.yul\":1977:1983   */\n      dup5\n        /* \"#utility.yul\":1972:1975   */\n      dup5\n        /* \"#utility.yul\":1968:1984   */\n      add\n        /* \"#utility.yul\":1961:1988   */\n      mstore\n        /* \"#utility.yul\":1897:1899   */\n    tag_49:\n        /* \"#utility.yul\":1746:2004   */\n      pop\n      pop\n      pop\n      pop\n      jump\t// out\n        /* \"#utility.yul\":2010:2330   */\n    tag_10:\n      0x00\n        /* \"#utility.yul\":2091:2092   */\n      0x02\n        /* \"#utility.yul\":2085:2089   */\n      dup3\n        /* \"#utility.yul\":2081:2093   */\n      div\n        /* \"#utility.yul\":2071:2093   */\n      swap1\n      pop\n        /* \"#utility.yul\":2138:2139   */\n      0x01\n        /* \"#utility.yul\":2132:2136   */\n      dup3\n        /* \"#utility.yul\":2128:2140   */\n      and\n        /* \"#utility.yul\":2159:2177   */\n      dup1\n        /* \"#utility.yul\":2149:2151   */\n      tag_51\n      jumpi\n        /* \"#utility.yul\":2215:2219   */\n      0x7f\n        /* \"#utility.yul\":2207:2213   */\n      dup3\n        /* \"#utility.yul\":2203:2220   */\n      and\n        /* \"#utility.yul\":2193:2220   */\n      swap2\n      pop\n        /* \"#utility.yul\":2149:2151   */\n    tag_51:\n        /* \"#utility.yul\":2277:2279   */\n      0x20\n        /* \"#utility.yul\":2269:2275   */\n      dup3\n        /* \"#utility.yul\":2266:2280   */\n      lt\n        /* \"#utility.yul\":2246:2264   */\n      dup2\n        /* \"#utility.yul\":2243:2281   */\n      eq\n        /* \"#utility.yul\":2240:2242   */\n      iszero\n      tag_52\n      jumpi\n        /* \"#utility.yul\":2296:2314   */\n      tag_53\n      tag_54\n      jump\t// in\n    tag_53:\n        /* \"#utility.yul\":2240:2242   */\n    tag_52:\n        /* \"#utility.yul\":2061:2330   */\n      pop\n      swap2\n      swap1\n      pop\n      jump\t// out\n        /* \"#utility.yul\":2336:2516   */\n    tag_54:\n        /* \"#utility.yul\":2384:2461   */\n      0x4e487b7100000000000000000000000000000000000000000000000000000000\n        /* \"#utility.yul\":2381:2382   */\n      0x00\n        /* \"#utility.yul\":2374:2462   */\n      mstore\n        /* \"#utility.yul\":2481:2485   */\n      0x22\n        /* \"#utility.yul\":2478:2479   */\n      0x04\n        /* \"#utility.yul\":2471:2486   */\n      mstore\n        /* \"#utility.yul\":2505:2509   */\n      0x24\n        /* \"#utility.yul\":2502:2503   */\n      0x00\n        /* \"#utility.yul\":2495:2510   */\n      revert\n        /* \"#utility.yul\":2522:2702   */\n    tag_41:\n        /* \"#utility.yul\":2570:2647   */\n      0x4e487b7100000000000000000000000000000000000000000000000000000000\n        /* \"#utility.yul\":2567:2568   */\n      0x00\n        /* \"#utility.yul\":2560:2648   */\n      mstore\n        /* \"#utility.yul\":2667:2671   */\n      0x41\n        /* \"#utility.yul\":2664:2665   */\n      0x04\n        /* \"#utility.yul\":2657:2672   */\n      mstore\n        /* \"#utility.yul\":2691:2695   */\n      0x24\n        /* \"#utility.yul\":2688:2689   */\n      0x00\n        /* \"#utility.yul\":2681:2696   */\n      revert\n        /* \"contracts/MyContact.sol\":266:479  contract SecretValut{... */\n    tag_8:\n      dataSize(sub_0)\n      dup1\n      dataOffset(sub_0)\n      0x00\n      codecopy\n      0x00\n      return\n    stop\n\n    sub_0: assembly {\n            /* \"contracts/MyContact.sol\":266:479  contract SecretValut{... */\n          mstore(0x40, 0x80)\n          callvalue\n          dup1\n          iszero\n          tag_1\n          jumpi\n          0x00\n          dup1\n          revert\n        tag_1:\n          pop\n          jumpi(tag_2, lt(calldatasize, 0x04))\n          shr(0xe0, calldataload(0x00))\n          dup1\n          0x5b9fdc30\n          eq\n          tag_3\n          jumpi\n        tag_2:\n          0x00\n          dup1\n          revert\n            /* \"contracts/MyContact.sol\":392:477  function getSecret() public view returns(string memory){... */\n        tag_3:\n          tag_4\n          tag_5\n          jump\t// in\n        tag_4:\n          mload(0x40)\n          tag_6\n          swap2\n          swap1\n          tag_7\n          jump\t// in\n        tag_6:\n          mload(0x40)\n          dup1\n          swap2\n          sub\n          swap1\n          return\n        tag_5:\n            /* \"contracts/MyContact.sol\":433:446  string memory */\n          0x60\n            /* \"contracts/MyContact.sol\":464:470  secret */\n          0x00\n            /* \"contracts/MyContact.sol\":457:470  return secret */\n          dup1\n          sload\n          tag_9\n          swap1\n          tag_10\n          jump\t// in\n        tag_9:\n          dup1\n          0x1f\n          add\n          0x20\n          dup1\n          swap2\n          div\n          mul\n          0x20\n          add\n          mload(0x40)\n          swap1\n          dup2\n          add\n          0x40\n          mstore\n          dup1\n          swap3\n          swap2\n          swap1\n          dup2\n          dup2\n          mstore\n          0x20\n          add\n          dup3\n          dup1\n          sload\n          tag_11\n          swap1\n          tag_10\n          jump\t// in\n        tag_11:\n          dup1\n          iszero\n          tag_12\n          jumpi\n          dup1\n          0x1f\n          lt\n          tag_13\n          jumpi\n          0x0100\n          dup1\n          dup4\n          sload\n          div\n          mul\n          dup4\n          mstore\n          swap2\n          0x20\n          add\n          swap2\n          jump(tag_12)\n        tag_13:\n          dup3\n          add\n          swap2\n          swap1\n          0x00\n          mstore\n          keccak256(0x00, 0x20)\n          swap1\n        tag_14:\n          dup2\n          sload\n          dup2\n          mstore\n          swap1\n          0x01\n          add\n          swap1\n          0x20\n          add\n          dup1\n          dup4\n          gt\n          tag_14\n          jumpi\n          dup3\n          swap1\n          sub\n          0x1f\n          and\n          dup3\n          add\n          swap2\n        tag_12:\n          pop\n          pop\n          pop\n          pop\n          pop\n          swap1\n          pop\n            /* \"contracts/MyContact.sol\":392:477  function getSecret() public view returns(string memory){... */\n          swap1\n          jump\t// out\n            /* \"#utility.yul\":7:371   */\n        tag_16:\n          0x00\n            /* \"#utility.yul\":123:162   */\n          tag_18\n            /* \"#utility.yul\":156:161   */\n          dup3\n            /* \"#utility.yul\":123:162   */\n          tag_19\n          jump\t// in\n        tag_18:\n            /* \"#utility.yul\":178:249   */\n          tag_20\n            /* \"#utility.yul\":242:248   */\n          dup2\n            /* \"#utility.yul\":237:240   */\n          dup6\n            /* \"#utility.yul\":178:249   */\n          tag_21\n          jump\t// in\n        tag_20:\n            /* \"#utility.yul\":171:249   */\n          swap4\n          pop\n            /* \"#utility.yul\":258:310   */\n          tag_22\n            /* \"#utility.yul\":303:309   */\n          dup2\n            /* \"#utility.yul\":298:301   */\n          dup6\n            /* \"#utility.yul\":291:295   */\n          0x20\n            /* \"#utility.yul\":284:289   */\n          dup7\n            /* \"#utility.yul\":280:296   */\n          add\n            /* \"#utility.yul\":258:310   */\n          tag_23\n          jump\t// in\n        tag_22:\n            /* \"#utility.yul\":335:364   */\n          tag_24\n            /* \"#utility.yul\":357:363   */\n          dup2\n            /* \"#utility.yul\":335:364   */\n          tag_25\n          jump\t// in\n        tag_24:\n            /* \"#utility.yul\":330:333   */\n          dup5\n            /* \"#utility.yul\":326:365   */\n          add\n            /* \"#utility.yul\":319:365   */\n          swap2\n          pop\n            /* \"#utility.yul\":99:371   */\n          pop\n          swap3\n          swap2\n          pop\n          pop\n          jump\t// out\n            /* \"#utility.yul\":377:690   */\n        tag_7:\n          0x00\n            /* \"#utility.yul\":528:530   */\n          0x20\n            /* \"#utility.yul\":517:526   */\n          dup3\n            /* \"#utility.yul\":513:531   */\n          add\n            /* \"#utility.yul\":505:531   */\n          swap1\n          pop\n            /* \"#utility.yul\":577:586   */\n          dup2\n            /* \"#utility.yul\":571:575   */\n          dup2\n            /* \"#utility.yul\":567:587   */\n          sub\n            /* \"#utility.yul\":563:564   */\n          0x00\n            /* \"#utility.yul\":552:561   */\n          dup4\n            /* \"#utility.yul\":548:565   */\n          add\n            /* \"#utility.yul\":541:588   */\n          mstore\n            /* \"#utility.yul\":605:683   */\n          tag_27\n            /* \"#utility.yul\":678:682   */\n          dup2\n            /* \"#utility.yul\":669:675   */\n          dup5\n            /* \"#utility.yul\":605:683   */\n          tag_16\n          jump\t// in\n        tag_27:\n            /* \"#utility.yul\":597:683   */\n          swap1\n          pop\n            /* \"#utility.yul\":495:690   */\n          swap3\n          swap2\n          pop\n          pop\n          jump\t// out\n            /* \"#utility.yul\":696:795   */\n        tag_19:\n          0x00\n            /* \"#utility.yul\":782:787   */\n          dup2\n            /* \"#utility.yul\":776:788   */\n          mload\n            /* \"#utility.yul\":766:788   */\n          swap1\n          pop\n            /* \"#utility.yul\":755:795   */\n          swap2\n          swap1\n          pop\n          jump\t// out\n            /* \"#utility.yul\":801:970   */\n        tag_21:\n          0x00\n            /* \"#utility.yul\":919:925   */\n          dup3\n            /* \"#utility.yul\":914:917   */\n          dup3\n            /* \"#utility.yul\":907:926   */\n          mstore\n            /* \"#utility.yul\":959:963   */\n          0x20\n            /* \"#utility.yul\":954:957   */\n          dup3\n            /* \"#utility.yul\":950:964   */\n          add\n            /* \"#utility.yul\":935:964   */\n          swap1\n          pop\n            /* \"#utility.yul\":897:970   */\n          swap3\n          swap2\n          pop\n          pop\n          jump\t// out\n            /* \"#utility.yul\":976:1283   */\n        tag_23:\n            /* \"#utility.yul\":1044:1045   */\n          0x00\n            /* \"#utility.yul\":1054:1167   */\n        tag_31:\n            /* \"#utility.yul\":1068:1074   */\n          dup4\n            /* \"#utility.yul\":1065:1066   */\n          dup2\n            /* \"#utility.yul\":1062:1075   */\n          lt\n            /* \"#utility.yul\":1054:1167   */\n          iszero\n          tag_33\n          jumpi\n            /* \"#utility.yul\":1153:1154   */\n          dup1\n            /* \"#utility.yul\":1148:1151   */\n          dup3\n            /* \"#utility.yul\":1144:1155   */\n          add\n            /* \"#utility.yul\":1138:1156   */\n          mload\n            /* \"#utility.yul\":1134:1135   */\n          dup2\n            /* \"#utility.yul\":1129:1132   */\n          dup5\n            /* \"#utility.yul\":1125:1136   */\n          add\n            /* \"#utility.yul\":1118:1157   */\n          mstore\n            /* \"#utility.yul\":1090:1092   */\n          0x20\n            /* \"#utility.yul\":1087:1088   */\n          dup2\n            /* \"#utility.yul\":1083:1093   */\n          add\n            /* \"#utility.yul\":1078:1093   */\n          swap1\n          pop\n            /* \"#utility.yul\":1054:1167   */\n          jump(tag_31)\n        tag_33:\n            /* \"#utility.yul\":1185:1191   */\n          dup4\n            /* \"#utility.yul\":1182:1183   */\n          dup2\n            /* \"#utility.yul\":1179:1192   */\n          gt\n            /* \"#utility.yul\":1176:1178   */\n          iszero\n          tag_34\n          jumpi\n            /* \"#utility.yul\":1265:1266   */\n          0x00\n            /* \"#utility.yul\":1256:1262   */\n          dup5\n            /* \"#utility.yul\":1251:1254   */\n          dup5\n            /* \"#utility.yul\":1247:1263   */\n          add\n            /* \"#utility.yul\":1240:1267   */\n          mstore\n            /* \"#utility.yul\":1176:1178   */\n        tag_34:\n            /* \"#utility.yul\":1025:1283   */\n          pop\n          pop\n          pop\n          pop\n          jump\t// out\n            /* \"#utility.yul\":1289:1609   */\n        tag_10:\n          0x00\n            /* \"#utility.yul\":1370:1371   */\n          0x02\n            /* \"#utility.yul\":1364:1368   */\n          dup3\n            /* \"#utility.yul\":1360:1372   */\n          div\n            /* \"#utility.yul\":1350:1372   */\n          swap1\n          pop\n            /* \"#utility.yul\":1417:1418   */\n          0x01\n            /* \"#utility.yul\":1411:1415   */\n          dup3\n            /* \"#utility.yul\":1407:1419   */\n          and\n            /* \"#utility.yul\":1438:1456   */\n          dup1\n            /* \"#utility.yul\":1428:1430   */\n          tag_36\n          jumpi\n            /* \"#utility.yul\":1494:1498   */\n          0x7f\n            /* \"#utility.yul\":1486:1492   */\n          dup3\n            /* \"#utility.yul\":1482:1499   */\n          and\n            /* \"#utility.yul\":1472:1499   */\n          swap2\n          pop\n            /* \"#utility.yul\":1428:1430   */\n        tag_36:\n            /* \"#utility.yul\":1556:1558   */\n          0x20\n            /* \"#utility.yul\":1548:1554   */\n          dup3\n            /* \"#utility.yul\":1545:1559   */\n          lt\n            /* \"#utility.yul\":1525:1543   */\n          dup2\n            /* \"#utility.yul\":1522:1560   */\n          eq\n            /* \"#utility.yul\":1519:1521   */\n          iszero\n          tag_37\n          jumpi\n            /* \"#utility.yul\":1575:1593   */\n          tag_38\n          tag_39\n          jump\t// in\n        tag_38:\n            /* \"#utility.yul\":1519:1521   */\n        tag_37:\n            /* \"#utility.yul\":1340:1609   */\n          pop\n          swap2\n          swap1\n          pop\n          jump\t// out\n            /* \"#utility.yul\":1615:1795   */\n        tag_39:\n            /* \"#utility.yul\":1663:1740   */\n          0x4e487b7100000000000000000000000000000000000000000000000000000000\n            /* \"#utility.yul\":1660:1661   */\n          0x00\n            /* \"#utility.yul\":1653:1741   */\n          mstore\n            /* \"#utility.yul\":1760:1764   */\n          0x22\n            /* \"#utility.yul\":1757:1758   */\n          0x04\n            /* \"#utility.yul\":1750:1765   */\n          mstore\n            /* \"#utility.yul\":1784:1788   */\n          0x24\n            /* \"#utility.yul\":1781:1782   */\n          0x00\n            /* \"#utility.yul\":1774:1789   */\n          revert\n            /* \"#utility.yul\":1801:1903   */\n        tag_25:\n          0x00\n            /* \"#utility.yul\":1893:1895   */\n          0x1f\n            /* \"#utility.yul\":1889:1896   */\n          not\n            /* \"#utility.yul\":1884:1886   */\n          0x1f\n            /* \"#utility.yul\":1877:1882   */\n          dup4\n            /* \"#utility.yul\":1873:1887   */\n          add\n            /* \"#utility.yul\":1869:1897   */\n          and\n            /* \"#utility.yul\":1859:1897   */\n          swap1\n          pop\n            /* \"#utility.yul\":1849:1903   */\n          swap2\n          swap1\n          pop\n          jump\t// out\n\n        auxdata: 0xa2646970667358221220f8e7a5930cab26073f0a579d3dc32d9f2aea2f39ec0d1deda9a26b36c476bad964736f6c63430008000033\n    }\n}\n",
				"bytecode": {
					"linkReferences": {},
					"object": "608060405234801561001057600080fd5b50604051610cc3380380610cc383398181016040528101906100329190610167565b336000806101000a81548173ffffffffffffffffffffffffffffffffffffffff021916908373ffffffffffffffffffffffffffffffffffffffff160217905550600081604051610081906100f2565b61008b91906101e1565b604051809103906000f0801580156100a7573d6000803e3d6000fd5b50905080600160006101000a81548173ffffffffffffffffffffffffffffffffffffffff021916908373ffffffffffffffffffffffffffffffffffffffff16021790555050506102f3565b610500806107c383390190565b600061011261010d84610234565b610203565b90508281526020810184848401111561012a57600080fd5b610135848285610280565b509392505050565b600082601f83011261014e57600080fd5b815161015e8482602086016100ff565b91505092915050565b60006020828403121561017957600080fd5b600082015167ffffffffffffffff81111561019357600080fd5b61019f8482850161013d565b91505092915050565b60006101b382610264565b6101bd818561026f565b93506101cd818560208601610280565b6101d6816102e2565b840191505092915050565b600060208201905081810360008301526101fb81846101a8565b905092915050565b6000604051905081810181811067ffffffffffffffff8211171561022a576102296102b3565b5b8060405250919050565b600067ffffffffffffffff82111561024f5761024e6102b3565b5b601f19601f8301169050602081019050919050565b600081519050919050565b600082825260208201905092915050565b60005b8381101561029e578082015181840152602081019050610283565b838111156102ad576000848401525b50505050565b7f4e487b7100000000000000000000000000000000000000000000000000000000600052604160045260246000fd5b6000601f19601f8301169050919050565b6104c1806103026000396000f3fe608060405234801561001057600080fd5b50600436106100365760003560e01c80635b9fdc301461003b5780638da5cb5b14610059575b600080fd5b610043610077565b6040516100509190610327565b60405180910390f35b6100616101b7565b60405161006e919061030c565b60405180910390f35b606060008054906101000a900473ffffffffffffffffffffffffffffffffffffffff1673ffffffffffffffffffffffffffffffffffffffff163373ffffffffffffffffffffffffffffffffffffffff1614610107576040517f08c379a00000000000000000000000000000000000000000000000000000000081526004016100fe90610349565b60405180910390fd5b6000600160009054906101000a900473ffffffffffffffffffffffffffffffffffffffff1690508073ffffffffffffffffffffffffffffffffffffffff16635b9fdc306040518163ffffffff1660e01b815260040160006040518083038186803b15801561017457600080fd5b505afa158015610188573d6000803e3d6000fd5b505050506040513d6000823e3d601f19601f820116820180604052508101906101b19190610243565b91505090565b60008054906101000a900473ffffffffffffffffffffffffffffffffffffffff1681565b60006101ee6101e98461039a565b610369565b90508281526020810184848401111561020657600080fd5b610211848285610418565b509392505050565b600082601f83011261022a57600080fd5b815161023a8482602086016101db565b91505092915050565b60006020828403121561025557600080fd5b600082015167ffffffffffffffff81111561026f57600080fd5b61027b84828501610219565b91505092915050565b61028d816103e6565b82525050565b600061029e826103ca565b6102a881856103d5565b93506102b8818560208601610418565b6102c18161047a565b840191505092915050565b60006102d9600d836103d5565b91507f6d757374206265206f776e6572000000000000000000000000000000000000006000830152602082019050919050565b60006020820190506103216000830184610284565b92915050565b600060208201905081810360008301526103418184610293565b905092915050565b60006020820190508181036000830152610362816102cc565b9050919050565b6000604051905081810181811067ffffffffffffffff821117156103905761038f61044b565b5b8060405250919050565b600067ffffffffffffffff8211156103b5576103b461044b565b5b601f19601f8301169050602081019050919050565b600081519050919050565b600082825260208201905092915050565b60006103f1826103f8565b9050919050565b600073ffffffffffffffffffffffffffffffffffffffff82169050919050565b60005b8381101561043657808201518184015260208101905061041b565b83811115610445576000848401525b50505050565b7f4e487b7100000000000000000000000000000000000000000000000000000000600052604160045260246000fd5b6000601f19601f830116905091905056fea2646970667358221220c525f9a7fd4a82a4342fcad916fa45099f47317bb14969a87fbcfbedc310bccb64736f6c63430008000033608060405234801561001057600080fd5b506040516105003803806105008339818101604052810190610032919061015a565b806000908051906020019061004892919061004f565b50506102bf565b82805461005b9061022f565b90600052602060002090601f01602090048101928261007d57600085556100c4565b82601f1061009657805160ff19168380011785556100c4565b828001600101855582156100c4579182015b828111156100c35782518255916020019190600101906100a8565b5b5090506100d191906100d5565b5090565b5b808211156100ee5760008160009055506001016100d6565b5090565b6000610105610100846101cc565b61019b565b90508281526020810184848401111561011d57600080fd5b6101288482856101fc565b509392505050565b600082601f83011261014157600080fd5b81516101518482602086016100f2565b91505092915050565b60006020828403121561016c57600080fd5b600082015167ffffffffffffffff81111561018657600080fd5b61019284828501610130565b91505092915050565b6000604051905081810181811067ffffffffffffffff821117156101c2576101c1610290565b5b8060405250919050565b600067ffffffffffffffff8211156101e7576101e6610290565b5b601f19601f8301169050602081019050919050565b60005b8381101561021a5780820151818401526020810190506101ff565b83811115610229576000848401525b50505050565b6000600282049050600182168061024757607f821691505b6020821081141561025b5761025a610261565b5b50919050565b7f4e487b7100000000000000000000000000000000000000000000000000000000600052602260045260246000fd5b7f4e487b7100000000000000000000000000000000000000000000000000000000600052604160045260246000fd5b610232806102ce6000396000f3fe608060405234801561001057600080fd5b506004361061002b5760003560e01c80635b9fdc3014610030575b600080fd5b61003861004e565b6040516100459190610119565b60405180910390f35b60606000805461005d9061018a565b80601f01602080910402602001604051908101604052809291908181526020018280546100899061018a565b80156100d65780601f106100ab576101008083540402835291602001916100d6565b820191906000526020600020905b8154815290600101906020018083116100b957829003601f168201915b5050505050905090565b60006100eb8261013b565b6100f58185610146565b9350610105818560208601610157565b61010e816101eb565b840191505092915050565b6000602082019050818103600083015261013381846100e0565b905092915050565b600081519050919050565b600082825260208201905092915050565b60005b8381101561017557808201518184015260208101905061015a565b83811115610184576000848401525b50505050565b600060028204905060018216806101a257607f821691505b602082108114156101b6576101b56101bc565b5b50919050565b7f4e487b7100000000000000000000000000000000000000000000000000000000600052602260045260246000fd5b6000601f19601f830116905091905056fea2646970667358221220f8e7a5930cab26073f0a579d3dc32d9f2aea2f39ec0d1deda9a26b36c476bad964736f6c63430008000033",
					"opcodes": "PUSH1 0x80 PUSH1 0x40 MSTORE CALLVALUE DUP1 ISZERO PUSH2 0x10 JUMPI PUSH1 0x0 DUP1 REVERT JUMPDEST POP PUSH1 0x40 MLOAD PUSH2 0xCC3 CODESIZE SUB DUP1 PUSH2 0xCC3 DUP4 CODECOPY DUP2 DUP2 ADD PUSH1 0x40 MSTORE DUP2 ADD SWAP1 PUSH2 0x32 SWAP2 SWAP1 PUSH2 0x167 JUMP JUMPDEST CALLER PUSH1 0x0 DUP1 PUSH2 0x100 EXP DUP2 SLOAD DUP2 PUSH20 0xFFFFFFFFFFFFFFFFFFFFFFFFFFFFFFFFFFFFFFFF MUL NOT AND SWAP1 DUP4 PUSH20 0xFFFFFFFFFFFFFFFFFFFFFFFFFFFFFFFFFFFFFFFF AND MUL OR SWAP1 SSTORE POP PUSH1 0x0 DUP2 PUSH1 0x40 MLOAD PUSH2 0x81 SWAP1 PUSH2 0xF2 JUMP JUMPDEST PUSH2 0x8B SWAP2 SWAP1 PUSH2 0x1E1 JUMP JUMPDEST PUSH1 0x40 MLOAD DUP1 SWAP2 SUB SWAP1 PUSH1 0x0 CREATE DUP1 ISZERO DUP1 ISZERO PUSH2 0xA7 JUMPI RETURNDATASIZE PUSH1 0x0 DUP1 RETURNDATACOPY RETURNDATASIZE PUSH1 0x0 REVERT JUMPDEST POP SWAP1 POP DUP1 PUSH1 0x1 PUSH1 0x0 PUSH2 0x100 EXP DUP2 SLOAD DUP2 PUSH20 0xFFFFFFFFFFFFFFFFFFFFFFFFFFFFFFFFFFFFFFFF MUL NOT AND SWAP1 DUP4 PUSH20 0xFFFFFFFFFFFFFFFFFFFFFFFFFFFFFFFFFFFFFFFF AND MUL OR SWAP1 SSTORE POP POP POP PUSH2 0x2F3 JUMP JUMPDEST PUSH2 0x500 DUP1 PUSH2 0x7C3 DUP4 CODECOPY ADD SWAP1 JUMP JUMPDEST PUSH1 0x0 PUSH2 0x112 PUSH2 0x10D DUP5 PUSH2 0x234 JUMP JUMPDEST PUSH2 0x203 JUMP JUMPDEST SWAP1 POP DUP3 DUP2 MSTORE PUSH1 0x20 DUP2 ADD DUP5 DUP5 DUP5 ADD GT ISZERO PUSH2 0x12A JUMPI PUSH1 0x0 DUP1 REVERT JUMPDEST PUSH2 0x135 DUP5 DUP3 DUP6 PUSH2 0x280 JUMP JUMPDEST POP SWAP4 SWAP3 POP POP POP JUMP JUMPDEST PUSH1 0x0 DUP3 PUSH1 0x1F DUP4 ADD SLT PUSH2 0x14E JUMPI PUSH1 0x0 DUP1 REVERT JUMPDEST DUP2 MLOAD PUSH2 0x15E DUP5 DUP3 PUSH1 0x20 DUP7 ADD PUSH2 0xFF JUMP JUMPDEST SWAP2 POP POP SWAP3 SWAP2 POP POP JUMP JUMPDEST PUSH1 0x0 PUSH1 0x20 DUP3 DUP5 SUB SLT ISZERO PUSH2 0x179 JUMPI PUSH1 0x0 DUP1 REVERT JUMPDEST PUSH1 0x0 DUP3 ADD MLOAD PUSH8 0xFFFFFFFFFFFFFFFF DUP2 GT ISZERO PUSH2 0x193 JUMPI PUSH1 0x0 DUP1 REVERT JUMPDEST PUSH2 0x19F DUP5 DUP3 DUP6 ADD PUSH2 0x13D JUMP JUMPDEST SWAP2 POP POP SWAP3 SWAP2 POP POP JUMP JUMPDEST PUSH1 0x0 PUSH2 0x1B3 DUP3 PUSH2 0x264 JUMP JUMPDEST PUSH2 0x1BD DUP2 DUP6 PUSH2 0x26F JUMP JUMPDEST SWAP4 POP PUSH2 0x1CD DUP2 DUP6 PUSH1 0x20 DUP7 ADD PUSH2 0x280 JUMP JUMPDEST PUSH2 0x1D6 DUP2 PUSH2 0x2E2 JUMP JUMPDEST DUP5 ADD SWAP2 POP POP SWAP3 SWAP2 POP POP JUMP JUMPDEST PUSH1 0x0 PUSH1 0x20 DUP3 ADD SWAP1 POP DUP2 DUP2 SUB PUSH1 0x0 DUP4 ADD MSTORE PUSH2 0x1FB DUP2 DUP5 PUSH2 0x1A8 JUMP JUMPDEST SWAP1 POP SWAP3 SWAP2 POP POP JUMP JUMPDEST PUSH1 0x0 PUSH1 0x40 MLOAD SWAP1 POP DUP2 DUP2 ADD DUP2 DUP2 LT PUSH8 0xFFFFFFFFFFFFFFFF DUP3 GT OR ISZERO PUSH2 0x22A JUMPI PUSH2 0x229 PUSH2 0x2B3 JUMP JUMPDEST JUMPDEST DUP1 PUSH1 0x40 MSTORE POP SWAP2 SWAP1 POP JUMP JUMPDEST PUSH1 0x0 PUSH8 0xFFFFFFFFFFFFFFFF DUP3 GT ISZERO PUSH2 0x24F JUMPI PUSH2 0x24E PUSH2 0x2B3 JUMP JUMPDEST JUMPDEST PUSH1 0x1F NOT PUSH1 0x1F DUP4 ADD AND SWAP1 POP PUSH1 0x20 DUP2 ADD SWAP1 POP SWAP2 SWAP1 POP JUMP JUMPDEST PUSH1 0x0 DUP2 MLOAD SWAP1 POP SWAP2 SWAP1 POP JUMP JUMPDEST PUSH1 0x0 DUP3 DUP3 MSTORE PUSH1 0x20 DUP3 ADD SWAP1 POP SWAP3 SWAP2 POP POP JUMP JUMPDEST PUSH1 0x0 JUMPDEST DUP4 DUP2 LT ISZERO PUSH2 0x29E JUMPI DUP1 DUP3 ADD MLOAD DUP2 DUP5 ADD MSTORE PUSH1 0x20 DUP2 ADD SWAP1 POP PUSH2 0x283 JUMP JUMPDEST DUP4 DUP2 GT ISZERO PUSH2 0x2AD JUMPI PUSH1 0x0 DUP5 DUP5 ADD MSTORE JUMPDEST POP POP POP POP JUMP JUMPDEST PUSH32 0x4E487B7100000000000000000000000000000000000000000000000000000000 PUSH1 0x0 MSTORE PUSH1 0x41 PUSH1 0x4 MSTORE PUSH1 0x24 PUSH1 0x0 REVERT JUMPDEST PUSH1 0x0 PUSH1 0x1F NOT PUSH1 0x1F DUP4 ADD AND SWAP1 POP SWAP2 SWAP1 POP JUMP JUMPDEST PUSH2 0x4C1 DUP1 PUSH2 0x302 PUSH1 0x0 CODECOPY PUSH1 0x0 RETURN INVALID PUSH1 0x80 PUSH1 0x40 MSTORE CALLVALUE DUP1 ISZERO PUSH2 0x10 JUMPI PUSH1 0x0 DUP1 REVERT JUMPDEST POP PUSH1 0x4 CALLDATASIZE LT PUSH2 0x36 JUMPI PUSH1 0x0 CALLDATALOAD PUSH1 0xE0 SHR DUP1 PUSH4 0x5B9FDC30 EQ PUSH2 0x3B JUMPI DUP1 PUSH4 0x8DA5CB5B EQ PUSH2 0x59 JUMPI JUMPDEST PUSH1 0x0 DUP1 REVERT JUMPDEST PUSH2 0x43 PUSH2 0x77 JUMP JUMPDEST PUSH1 0x40 MLOAD PUSH2 0x50 SWAP2 SWAP1 PUSH2 0x327 JUMP JUMPDEST PUSH1 0x40 MLOAD DUP1 SWAP2 SUB SWAP1 RETURN JUMPDEST PUSH2 0x61 PUSH2 0x1B7 JUMP JUMPDEST PUSH1 0x40 MLOAD PUSH2 0x6E SWAP2 SWAP1 PUSH2 0x30C JUMP JUMPDEST PUSH1 0x40 MLOAD DUP1 SWAP2 SUB SWAP1 RETURN JUMPDEST PUSH1 0x60 PUSH1 0x0 DUP1 SLOAD SWAP1 PUSH2 0x100 EXP SWAP1 DIV PUSH20 0xFFFFFFFFFFFFFFFFFFFFFFFFFFFFFFFFFFFFFFFF AND PUSH20 0xFFFFFFFFFFFFFFFFFFFFFFFFFFFFFFFFFFFFFFFF AND CALLER PUSH20 0xFFFFFFFFFFFFFFFFFFFFFFFFFFFFFFFFFFFFFFFF AND EQ PUSH2 0x107 JUMPI PUSH1 0x40 MLOAD PUSH32 0x8C379A000000000000000000000000000000000000000000000000000000000 DUP2 MSTORE PUSH1 0x4 ADD PUSH2 0xFE SWAP1 PUSH2 0x349 JUMP JUMPDEST PUSH1 0x40 MLOAD DUP1 SWAP2 SUB SWAP1 REVERT JUMPDEST PUSH1 0x0 PUSH1 0x1 PUSH1 0x0 SWAP1 SLOAD SWAP1 PUSH2 0x100 EXP SWAP1 DIV PUSH20 0xFFFFFFFFFFFFFFFFFFFFFFFFFFFFFFFFFFFFFFFF AND SWAP1 POP DUP1 PUSH20 0xFFFFFFFFFFFFFFFFFFFFFFFFFFFFFFFFFFFFFFFF AND PUSH4 0x5B9FDC30 PUSH1 0x40 MLOAD DUP2 PUSH4 0xFFFFFFFF AND PUSH1 0xE0 SHL DUP2 MSTORE PUSH1 0x4 ADD PUSH1 0x0 PUSH1 0x40 MLOAD DUP1 DUP4 SUB DUP2 DUP7 DUP1 EXTCODESIZE ISZERO DUP1 ISZERO PUSH2 0x174 JUMPI PUSH1 0x0 DUP1 REVERT JUMPDEST POP GAS STATICCALL ISZERO DUP1 ISZERO PUSH2 0x188 JUMPI RETURNDATASIZE PUSH1 0x0 DUP1 RETURNDATACOPY RETURNDATASIZE PUSH1 0x0 REVERT JUMPDEST POP POP POP POP PUSH1 0x40 MLOAD RETURNDATASIZE PUSH1 0x0 DUP3 RETURNDATACOPY RETURNDATASIZE PUSH1 0x1F NOT PUSH1 0x1F DUP3 ADD AND DUP3 ADD DUP1 PUSH1 0x40 MSTORE POP DUP2 ADD SWAP1 PUSH2 0x1B1 SWAP2 SWAP1 PUSH2 0x243 JUMP JUMPDEST SWAP2 POP POP SWAP1 JUMP JUMPDEST PUSH1 0x0 DUP1 SLOAD SWAP1 PUSH2 0x100 EXP SWAP1 DIV PUSH20 0xFFFFFFFFFFFFFFFFFFFFFFFFFFFFFFFFFFFFFFFF AND DUP2 JUMP JUMPDEST PUSH1 0x0 PUSH2 0x1EE PUSH2 0x1E9 DUP5 PUSH2 0x39A JUMP JUMPDEST PUSH2 0x369 JUMP JUMPDEST SWAP1 POP DUP3 DUP2 MSTORE PUSH1 0x20 DUP2 ADD DUP5 DUP5 DUP5 ADD GT ISZERO PUSH2 0x206 JUMPI PUSH1 0x0 DUP1 REVERT JUMPDEST PUSH2 0x211 DUP5 DUP3 DUP6 PUSH2 0x418 JUMP JUMPDEST POP SWAP4 SWAP3 POP POP POP JUMP JUMPDEST PUSH1 0x0 DUP3 PUSH1 0x1F DUP4 ADD SLT PUSH2 0x22A JUMPI PUSH1 0x0 DUP1 REVERT JUMPDEST DUP2 MLOAD PUSH2 0x23A DUP5 DUP3 PUSH1 0x20 DUP7 ADD PUSH2 0x1DB JUMP JUMPDEST SWAP2 POP POP SWAP3 SWAP2 POP POP JUMP JUMPDEST PUSH1 0x0 PUSH1 0x20 DUP3 DUP5 SUB SLT ISZERO PUSH2 0x255 JUMPI PUSH1 0x0 DUP1 REVERT JUMPDEST PUSH1 0x0 DUP3 ADD MLOAD PUSH8 0xFFFFFFFFFFFFFFFF DUP2 GT ISZERO PUSH2 0x26F JUMPI PUSH1 0x0 DUP1 REVERT JUMPDEST PUSH2 0x27B DUP5 DUP3 DUP6 ADD PUSH2 0x219 JUMP JUMPDEST SWAP2 POP POP SWAP3 SWAP2 POP POP JUMP JUMPDEST PUSH2 0x28D DUP2 PUSH2 0x3E6 JUMP JUMPDEST DUP3 MSTORE POP POP JUMP JUMPDEST PUSH1 0x0 PUSH2 0x29E DUP3 PUSH2 0x3CA JUMP JUMPDEST PUSH2 0x2A8 DUP2 DUP6 PUSH2 0x3D5 JUMP JUMPDEST SWAP4 POP PUSH2 0x2B8 DUP2 DUP6 PUSH1 0x20 DUP7 ADD PUSH2 0x418 JUMP JUMPDEST PUSH2 0x2C1 DUP2 PUSH2 0x47A JUMP JUMPDEST DUP5 ADD SWAP2 POP POP SWAP3 SWAP2 POP POP JUMP JUMPDEST PUSH1 0x0 PUSH2 0x2D9 PUSH1 0xD DUP4 PUSH2 0x3D5 JUMP JUMPDEST SWAP2 POP PUSH32 0x6D757374206265206F776E657200000000000000000000000000000000000000 PUSH1 0x0 DUP4 ADD MSTORE PUSH1 0x20 DUP3 ADD SWAP1 POP SWAP2 SWAP1 POP JUMP JUMPDEST PUSH1 0x0 PUSH1 0x20 DUP3 ADD SWAP1 POP PUSH2 0x321 PUSH1 0x0 DUP4 ADD DUP5 PUSH2 0x284 JUMP JUMPDEST SWAP3 SWAP2 POP POP JUMP JUMPDEST PUSH1 0x0 PUSH1 0x20 DUP3 ADD SWAP1 POP DUP2 DUP2 SUB PUSH1 0x0 DUP4 ADD MSTORE PUSH2 0x341 DUP2 DUP5 PUSH2 0x293 JUMP JUMPDEST SWAP1 POP SWAP3 SWAP2 POP POP JUMP JUMPDEST PUSH1 0x0 PUSH1 0x20 DUP3 ADD SWAP1 POP DUP2 DUP2 SUB PUSH1 0x0 DUP4 ADD MSTORE PUSH2 0x362 DUP2 PUSH2 0x2CC JUMP JUMPDEST SWAP1 POP SWAP2 SWAP1 POP JUMP JUMPDEST PUSH1 0x0 PUSH1 0x40 MLOAD SWAP1 POP DUP2 DUP2 ADD DUP2 DUP2 LT PUSH8 0xFFFFFFFFFFFFFFFF DUP3 GT OR ISZERO PUSH2 0x390 JUMPI PUSH2 0x38F PUSH2 0x44B JUMP JUMPDEST JUMPDEST DUP1 PUSH1 0x40 MSTORE POP SWAP2 SWAP1 POP JUMP JUMPDEST PUSH1 0x0 PUSH8 0xFFFFFFFFFFFFFFFF DUP3 GT ISZERO PUSH2 0x3B5 JUMPI PUSH2 0x3B4 PUSH2 0x44B JUMP JUMPDEST JUMPDEST PUSH1 0x1F NOT PUSH1 0x1F DUP4 ADD AND SWAP1 POP PUSH1 0x20 DUP2 ADD SWAP1 POP SWAP2 SWAP1 POP JUMP JUMPDEST PUSH1 0x0 DUP2 MLOAD SWAP1 POP SWAP2 SWAP1 POP JUMP JUMPDEST PUSH1 0x0 DUP3 DUP3 MSTORE PUSH1 0x20 DUP3 ADD SWAP1 POP SWAP3 SWAP2 POP POP JUMP JUMPDEST PUSH1 0x0 PUSH2 0x3F1 DUP3 PUSH2 0x3F8 JUMP JUMPDEST SWAP1 POP SWAP2 SWAP1 POP JUMP JUMPDEST PUSH1 0x0 PUSH20 0xFFFFFFFFFFFFFFFFFFFFFFFFFFFFFFFFFFFFFFFF DUP3 AND SWAP1 POP SWAP2 SWAP1 POP JUMP JUMPDEST PUSH1 0x0 JUMPDEST DUP4 DUP2 LT ISZERO PUSH2 0x436 JUMPI DUP1 DUP3 ADD MLOAD DUP2 DUP5 ADD MSTORE PUSH1 0x20 DUP2 ADD SWAP1 POP PUSH2 0x41B JUMP JUMPDEST DUP4 DUP2 GT ISZERO PUSH2 0x445 JUMPI PUSH1 0x0 DUP5 DUP5 ADD MSTORE JUMPDEST POP POP POP POP JUMP JUMPDEST PUSH32 0x4E487B7100000000000000000000000000000000000000000000000000000000 PUSH1 0x0 MSTORE PUSH1 0x41 PUSH1 0x4 MSTORE PUSH1 0x24 PUSH1 0x0 REVERT JUMPDEST PUSH1 0x0 PUSH1 0x1F NOT PUSH1 0x1F DUP4 ADD AND SWAP1 POP SWAP2 SWAP1 POP JUMP INVALID LOG2 PUSH5 0x6970667358 0x22 SLT KECCAK256 0xC5 0x25 0xF9 0xA7 REVERT 0x4A DUP3 LOG4 CALLVALUE 0x2F 0xCA 0xD9 AND STATICCALL GASLIMIT MULMOD SWAP16 SELFBALANCE BALANCE PUSH28 0xB14969A87FBCFBEDC310BCCB64736F6C634300080000336080604052 CALLVALUE DUP1 ISZERO PUSH2 0x10 JUMPI PUSH1 0x0 DUP1 REVERT JUMPDEST POP PUSH1 0x40 MLOAD PUSH2 0x500 CODESIZE SUB DUP1 PUSH2 0x500 DUP4 CODECOPY DUP2 DUP2 ADD PUSH1 0x40 MSTORE DUP2 ADD SWAP1 PUSH2 0x32 SWAP2 SWAP1 PUSH2 0x15A JUMP JUMPDEST DUP1 PUSH1 0x0 SWAP1 DUP1 MLOAD SWAP1 PUSH1 0x20 ADD SWAP1 PUSH2 0x48 SWAP3 SWAP2 SWAP1 PUSH2 0x4F JUMP JUMPDEST POP POP PUSH2 0x2BF JUMP JUMPDEST DUP3 DUP1 SLOAD PUSH2 0x5B SWAP1 PUSH2 0x22F JUMP JUMPDEST SWAP1 PUSH1 0x0 MSTORE PUSH1 0x20 PUSH1 0x0 KECCAK256 SWAP1 PUSH1 0x1F ADD PUSH1 0x20 SWAP1 DIV DUP2 ADD SWAP3 DUP3 PUSH2 0x7D JUMPI PUSH1 0x0 DUP6 SSTORE PUSH2 0xC4 JUMP JUMPDEST DUP3 PUSH1 0x1F LT PUSH2 0x96 JUMPI DUP1 MLOAD PUSH1 0xFF NOT AND DUP4 DUP1 ADD OR DUP6 SSTORE PUSH2 0xC4 JUMP JUMPDEST DUP3 DUP1 ADD PUSH1 0x1 ADD DUP6 SSTORE DUP3 ISZERO PUSH2 0xC4 JUMPI SWAP2 DUP3 ADD JUMPDEST DUP3 DUP2 GT ISZERO PUSH2 0xC3 JUMPI DUP3 MLOAD DUP3 SSTORE SWAP2 PUSH1 0x20 ADD SWAP2 SWAP1 PUSH1 0x1 ADD SWAP1 PUSH2 0xA8 JUMP JUMPDEST JUMPDEST POP SWAP1 POP PUSH2 0xD1 SWAP2 SWAP1 PUSH2 0xD5 JUMP JUMPDEST POP SWAP1 JUMP JUMPDEST JUMPDEST DUP1 DUP3 GT ISZERO PUSH2 0xEE JUMPI PUSH1 0x0 DUP2 PUSH1 0x0 SWAP1 SSTORE POP PUSH1 0x1 ADD PUSH2 0xD6 JUMP JUMPDEST POP SWAP1 JUMP JUMPDEST PUSH1 0x0 PUSH2 0x105 PUSH2 0x100 DUP5 PUSH2 0x1CC JUMP JUMPDEST PUSH2 0x19B JUMP JUMPDEST SWAP1 POP DUP3 DUP2 MSTORE PUSH1 0x20 DUP2 ADD DUP5 DUP5 DUP5 ADD GT ISZERO PUSH2 0x11D JUMPI PUSH1 0x0 DUP1 REVERT JUMPDEST PUSH2 0x128 DUP5 DUP3 DUP6 PUSH2 0x1FC JUMP JUMPDEST POP SWAP4 SWAP3 POP POP POP JUMP JUMPDEST PUSH1 0x0 DUP3 PUSH1 0x1F DUP4 ADD SLT PUSH2 0x141 JUMPI PUSH1 0x0 DUP1 REVERT JUMPDEST DUP2 MLOAD PUSH2 0x151 DUP5 DUP3 PUSH1 0x20 DUP7 ADD PUSH2 0xF2 JUMP JUMPDEST SWAP2 POP POP SWAP3 SWAP2 POP POP JUMP JUMPDEST PUSH1 0x0 PUSH1 0x20 DUP3 DUP5 SUB SLT ISZERO PUSH2 0x16C JUMPI PUSH1 0x0 DUP1 REVERT JUMPDEST PUSH1 0x0 DUP3 ADD MLOAD PUSH8 0xFFFFFFFFFFFFFFFF DUP2 GT ISZERO PUSH2 0x186 JUMPI PUSH1 0x0 DUP1 REVERT JUMPDEST PUSH2 0x192 DUP5 DUP3 DUP6 ADD PUSH2 0x130 JUMP JUMPDEST SWAP2 POP POP SWAP3 SWAP2 POP POP JUMP JUMPDEST PUSH1 0x0 PUSH1 0x40 MLOAD SWAP1 POP DUP2 DUP2 ADD DUP2 DUP2 LT PUSH8 0xFFFFFFFFFFFFFFFF DUP3 GT OR ISZERO PUSH2 0x1C2 JUMPI PUSH2 0x1C1 PUSH2 0x290 JUMP JUMPDEST JUMPDEST DUP1 PUSH1 0x40 MSTORE POP SWAP2 SWAP1 POP JUMP JUMPDEST PUSH1 0x0 PUSH8 0xFFFFFFFFFFFFFFFF DUP3 GT ISZERO PUSH2 0x1E7 JUMPI PUSH2 0x1E6 PUSH2 0x290 JUMP JUMPDEST JUMPDEST PUSH1 0x1F NOT PUSH1 0x1F DUP4 ADD AND SWAP1 POP PUSH1 0x20 DUP2 ADD SWAP1 POP SWAP2 SWAP1 POP JUMP JUMPDEST PUSH1 0x0 JUMPDEST DUP4 DUP2 LT ISZERO PUSH2 0x21A JUMPI DUP1 DUP3 ADD MLOAD DUP2 DUP5 ADD MSTORE PUSH1 0x20 DUP2 ADD SWAP1 POP PUSH2 0x1FF JUMP JUMPDEST DUP4 DUP2 GT ISZERO PUSH2 0x229 JUMPI PUSH1 0x0 DUP5 DUP5 ADD MSTORE JUMPDEST POP POP POP POP JUMP JUMPDEST PUSH1 0x0 PUSH1 0x2 DUP3 DIV SWAP1 POP PUSH1 0x1 DUP3 AND DUP1 PUSH2 0x247 JUMPI PUSH1 0x7F DUP3 AND SWAP2 POP JUMPDEST PUSH1 0x20 DUP3 LT DUP2 EQ ISZERO PUSH2 0x25B JUMPI PUSH2 0x25A PUSH2 0x261 JUMP JUMPDEST JUMPDEST POP SWAP2 SWAP1 POP JUMP JUMPDEST PUSH32 0x4E487B7100000000000000000000000000000000000000000000000000000000 PUSH1 0x0 MSTORE PUSH1 0x22 PUSH1 0x4 MSTORE PUSH1 0x24 PUSH1 0x0 REVERT JUMPDEST PUSH32 0x4E487B7100000000000000000000000000000000000000000000000000000000 PUSH1 0x0 MSTORE PUSH1 0x41 PUSH1 0x4 MSTORE PUSH1 0x24 PUSH1 0x0 REVERT JUMPDEST PUSH2 0x232 DUP1 PUSH2 0x2CE PUSH1 0x0 CODECOPY PUSH1 0x0 RETURN INVALID PUSH1 0x80 PUSH1 0x40 MSTORE CALLVALUE DUP1 ISZERO PUSH2 0x10 JUMPI PUSH1 0x0 DUP1 REVERT JUMPDEST POP PUSH1 0x4 CALLDATASIZE LT PUSH2 0x2B JUMPI PUSH1 0x0 CALLDATALOAD PUSH1 0xE0 SHR DUP1 PUSH4 0x5B9FDC30 EQ PUSH2 0x30 JUMPI JUMPDEST PUSH1 0x0 DUP1 REVERT JUMPDEST PUSH2 0x38 PUSH2 0x4E JUMP JUMPDEST PUSH1 0x40 MLOAD PUSH2 0x45 SWAP2 SWAP1 PUSH2 0x119 JUMP JUMPDEST PUSH1 0x40 MLOAD DUP1 SWAP2 SUB SWAP1 RETURN JUMPDEST PUSH1 0x60 PUSH1 0x0 DUP1 SLOAD PUSH2 0x5D SWAP1 PUSH2 0x18A JUMP JUMPDEST DUP1 PUSH1 0x1F ADD PUSH1 0x20 DUP1 SWAP2 DIV MUL PUSH1 0x20 ADD PUSH1 0x40 MLOAD SWAP1 DUP2 ADD PUSH1 0x40 MSTORE DUP1 SWAP3 SWAP2 SWAP1 DUP2 DUP2 MSTORE PUSH1 0x20 ADD DUP3 DUP1 SLOAD PUSH2 0x89 SWAP1 PUSH2 0x18A JUMP JUMPDEST DUP1 ISZERO PUSH2 0xD6 JUMPI DUP1 PUSH1 0x1F LT PUSH2 0xAB JUMPI PUSH2 0x100 DUP1 DUP4 SLOAD DIV MUL DUP4 MSTORE SWAP2 PUSH1 0x20 ADD SWAP2 PUSH2 0xD6 JUMP JUMPDEST DUP3 ADD SWAP2 SWAP1 PUSH1 0x0 MSTORE PUSH1 0x20 PUSH1 0x0 KECCAK256 SWAP1 JUMPDEST DUP2 SLOAD DUP2 MSTORE SWAP1 PUSH1 0x1 ADD SWAP1 PUSH1 0x20 ADD DUP1 DUP4 GT PUSH2 0xB9 JUMPI DUP3 SWAP1 SUB PUSH1 0x1F AND DUP3 ADD SWAP2 JUMPDEST POP POP POP POP POP SWAP1 POP SWAP1 JUMP JUMPDEST PUSH1 0x0 PUSH2 0xEB DUP3 PUSH2 0x13B JUMP JUMPDEST PUSH2 0xF5 DUP2 DUP6 PUSH2 0x146 JUMP JUMPDEST SWAP4 POP PUSH2 0x105 DUP2 DUP6 PUSH1 0x20 DUP7 ADD PUSH2 0x157 JUMP JUMPDEST PUSH2 0x10E DUP2 PUSH2 0x1EB JUMP JUMPDEST DUP5 ADD SWAP2 POP POP SWAP3 SWAP2 POP POP JUMP JUMPDEST PUSH1 0x0 PUSH1 0x20 DUP3 ADD SWAP1 POP DUP2 DUP2 SUB PUSH1 0x0 DUP4 ADD MSTORE PUSH2 0x133 DUP2 DUP5 PUSH2 0xE0 JUMP JUMPDEST SWAP1 POP SWAP3 SWAP2 POP POP JUMP JUMPDEST PUSH1 0x0 DUP2 MLOAD SWAP1 POP SWAP2 SWAP1 POP JUMP JUMPDEST PUSH1 0x0 DUP3 DUP3 MSTORE PUSH1 0x20 DUP3 ADD SWAP1 POP SWAP3 SWAP2 POP POP JUMP JUMPDEST PUSH1 0x0 JUMPDEST DUP4 DUP2 LT ISZERO PUSH2 0x175 JUMPI DUP1 DUP3 ADD MLOAD DUP2 DUP5 ADD MSTORE PUSH1 0x20 DUP2 ADD SWAP1 POP PUSH2 0x15A JUMP JUMPDEST DUP4 DUP2 GT ISZERO PUSH2 0x184 JUMPI PUSH1 0x0 DUP5 DUP5 ADD MSTORE JUMPDEST POP POP POP POP JUMP JUMPDEST PUSH1 0x0 PUSH1 0x2 DUP3 DIV SWAP1 POP PUSH1 0x1 DUP3 AND DUP1 PUSH2 0x1A2 JUMPI PUSH1 0x7F DUP3 AND SWAP2 POP JUMPDEST PUSH1 0x20 DUP3 LT DUP2 EQ ISZERO PUSH2 0x1B6 JUMPI PUSH2 0x1B5 PUSH2 0x1BC JUMP JUMPDEST JUMPDEST POP SWAP2 SWAP1 POP JUMP JUMPDEST PUSH32 0x4E487B7100000000000000000000000000000000000000000000000000000000 PUSH1 0x0 MSTORE PUSH1 0x22 PUSH1 0x4 MSTORE PUSH1 0x24 PUSH1 0x0 REVERT JUMPDEST PUSH1 0x0 PUSH1 0x1F NOT PUSH1 0x1F DUP4 ADD AND SWAP1 POP SWAP2 SWAP1 POP JUMP INVALID LOG2 PUSH5 0x6970667358 0x22 SLT KECCAK256 0xF8 0xE7 0xA5 SWAP4 0xC 0xAB 0x26 SMOD EXTCODEHASH EXP JUMPI SWAP14 RETURNDATASIZE 0xC3 0x2D SWAP16 0x2A 0xEA 0x2F CODECOPY 0xEC 0xD SAR 0xED 0xA9 LOG2 PUSH12 0x36C476BAD964736F6C634300 ADDMOD STOP STOP CALLER "
				},
				"gasEstimates": {
					"creation": {
						"codeDepositCost": "243400",
						"executionCost": "infinite",
						"totalCost": "infinite"
					},
					"external": {
						"getSecret()": "infinite",
						"owner()": "1211"
					}
				},
				"methodIdentifiers": {
					"getSecret()": "5b9fdc30",
					"owner()": "8da5cb5b"
				}
			},
			"storageLayout": {
				"storage": [
					{
						"astId": 3,
						"contract": "contracts/MyContact.sol:MyContract",
						"label": "owner",
						"offset": 0,
						"slot": "0",
						"type": "t_address"
					},
					{
						"astId": 50,
						"contract": "contracts/MyContact.sol:MyContract",
						"label": "secretValut",
						"offset": 0,
						"slot": "1",
						"type": "t_address"
					}
				],
				"types": {
					"t_address": {
						"encoding": "inplace",
						"label": "address",
						"numberOfBytes": "20"
					}
				}
			},
			"userdoc": {
				"kind": "user",
				"methods": {},
				"version": 1
			}
		}
	}
}